{
	"Factory/ERC20Airdropper/ERC20Airdropper.sol": {
		"ERC20Airdropper": {
			"abi": [
				{
					"inputs": [],
					"name": "AlreadyInitialized",
					"type": "error"
				},
				{
					"inputs": [
						{
							"internalType": "address[]",
							"name": "receivers",
							"type": "address[]"
						},
						{
							"internalType": "uint256[]",
							"name": "amounts",
							"type": "uint256[]"
						}
					],
					"name": "airdrop",
					"outputs": [],
					"stateMutability": "nonpayable",
					"type": "function"
				},
				{
					"inputs": [],
					"name": "amount",
					"outputs": [
						{
							"internalType": "uint256",
							"name": "",
							"type": "uint256"
						}
					],
					"stateMutability": "view",
					"type": "function"
				},
				{
					"inputs": [
						{
							"internalType": "address",
							"name": "_token",
							"type": "address"
						},
						{
							"internalType": "uint256",
							"name": "_amount",
							"type": "uint256"
						}
					],
					"name": "getInitData",
					"outputs": [
						{
							"internalType": "bytes",
							"name": "",
							"type": "bytes"
						}
					],
					"stateMutability": "pure",
					"type": "function"
				},
				{
					"inputs": [
						{
							"internalType": "bytes",
							"name": "_initData",
							"type": "bytes"
						}
					],
					"name": "initialize",
					"outputs": [
						{
							"internalType": "bool",
							"name": "",
							"type": "bool"
						}
					],
					"stateMutability": "nonpayable",
					"type": "function"
				},
				{
					"inputs": [],
					"name": "token",
					"outputs": [
						{
							"internalType": "contract IERC20",
							"name": "",
							"type": "address"
						}
					],
					"stateMutability": "view",
					"type": "function"
				}
			],
			"devdoc": {
				"kind": "dev",
				"methods": {},
				"version": 1
			},
			"evm": {
				"assembly": "    /* \"Factory/ERC20Airdropper/ERC20Airdropper.sol\":119:1295  contract ERC20Airdropper {... */\n  mstore(0x40, 0x80)\n  callvalue\n  dup1\n  iszero\n  tag_1\n  jumpi\n  revert(0x00, 0x00)\ntag_1:\n  pop\n  dataSize(sub_0)\n  dup1\n  dataOffset(sub_0)\n  0x00\n  codecopy\n  0x00\n  return\nstop\n\nsub_0: assembly {\n        /* \"Factory/ERC20Airdropper/ERC20Airdropper.sol\":119:1295  contract ERC20Airdropper {... */\n      mstore(0x40, 0x80)\n      callvalue\n      dup1\n      iszero\n      tag_1\n      jumpi\n      revert(0x00, 0x00)\n    tag_1:\n      pop\n      jumpi(tag_2, lt(calldatasize, 0x04))\n      shr(0xe0, calldataload(0x00))\n      dup1\n      0x439fab91\n      eq\n      tag_3\n      jumpi\n      dup1\n      0x67243482\n      eq\n      tag_4\n      jumpi\n      dup1\n      0xaa8c217c\n      eq\n      tag_5\n      jumpi\n      dup1\n      0xb551c00a\n      eq\n      tag_6\n      jumpi\n      dup1\n      0xfc0c546a\n      eq\n      tag_7\n      jumpi\n    tag_2:\n      revert(0x00, 0x00)\n        /* \"Factory/ERC20Airdropper/ERC20Airdropper.sol\":395:684  function initialize(bytes memory _initData) notInitialized external returns(bool) {... */\n    tag_3:\n      tag_8\n      0x04\n      dup1\n      calldatasize\n      sub\n      dup2\n      add\n      swap1\n      tag_9\n      swap2\n      swap1\n      tag_10\n      jump\t// in\n    tag_9:\n      tag_11\n      jump\t// in\n    tag_8:\n      mload(0x40)\n      tag_12\n      swap2\n      swap1\n      tag_13\n      jump\t// in\n    tag_12:\n      mload(0x40)\n      dup1\n      swap2\n      sub\n      swap1\n      return\n        /* \"Factory/ERC20Airdropper/ERC20Airdropper.sol\":843:1290  function airdrop(address[] calldata receivers, uint256[] calldata amounts) external {... */\n    tag_4:\n      tag_14\n      0x04\n      dup1\n      calldatasize\n      sub\n      dup2\n      add\n      swap1\n      tag_15\n      swap2\n      swap1\n      tag_16\n      jump\t// in\n    tag_15:\n      tag_17\n      jump\t// in\n    tag_14:\n      stop\n        /* \"Factory/ERC20Airdropper/ERC20Airdropper.sol\":179:200  uint256 public amount */\n    tag_5:\n      tag_18\n      tag_19\n      jump\t// in\n    tag_18:\n      mload(0x40)\n      tag_20\n      swap2\n      swap1\n      tag_21\n      jump\t// in\n    tag_20:\n      mload(0x40)\n      dup1\n      swap2\n      sub\n      swap1\n      return\n        /* \"Factory/ERC20Airdropper/ERC20Airdropper.sol\":692:835  function getInitData(address _token, uint256 _amount) external pure returns(bytes memory) {... */\n    tag_6:\n      tag_22\n      0x04\n      dup1\n      calldatasize\n      sub\n      dup2\n      add\n      swap1\n      tag_23\n      swap2\n      swap1\n      tag_24\n      jump\t// in\n    tag_23:\n      tag_25\n      jump\t// in\n    tag_22:\n      mload(0x40)\n      tag_26\n      swap2\n      swap1\n      tag_27\n      jump\t// in\n    tag_26:\n      mload(0x40)\n      dup1\n      swap2\n      sub\n      swap1\n      return\n        /* \"Factory/ERC20Airdropper/ERC20Airdropper.sol\":153:172  IERC20 public token */\n    tag_7:\n      tag_28\n      tag_29\n      jump\t// in\n    tag_28:\n      mload(0x40)\n      tag_30\n      swap2\n      swap1\n      tag_31\n      jump\t// in\n    tag_30:\n      mload(0x40)\n      dup1\n      swap2\n      sub\n      swap1\n      return\n        /* \"Factory/ERC20Airdropper/ERC20Airdropper.sol\":395:684  function initialize(bytes memory _initData) notInitialized external returns(bool) {... */\n    tag_11:\n        /* \"Factory/ERC20Airdropper/ERC20Airdropper.sol\":471:475  bool */\n      0x00\n        /* \"Factory/ERC20Airdropper/ERC20Airdropper.sol\":333:344  initialized */\n      0x02\n      0x00\n      swap1\n      sload\n      swap1\n      0x0100\n      exp\n      swap1\n      div\n      0xff\n      and\n        /* \"Factory/ERC20Airdropper/ERC20Airdropper.sol\":332:344  !initialized */\n      iszero\n        /* \"Factory/ERC20Airdropper/ERC20Airdropper.sol\":324:367  require(!initialized, AlreadyInitialized()) */\n      tag_33\n      jumpi\n      mload(0x40)\n      0x0dc149f000000000000000000000000000000000000000000000000000000000\n      dup2\n      mstore\n      0x04\n      add\n      mload(0x40)\n      dup1\n      swap2\n      sub\n      swap1\n      revert\n    tag_33:\n        /* \"Factory/ERC20Airdropper/ERC20Airdropper.sol\":489:503  address _token */\n      0x00\n        /* \"Factory/ERC20Airdropper/ERC20Airdropper.sol\":505:520  uint256 _amount */\n      0x00\n        /* \"Factory/ERC20Airdropper/ERC20Airdropper.sol\":535:544  _initData */\n      dup4\n        /* \"Factory/ERC20Airdropper/ERC20Airdropper.sol\":524:565  abi.decode(_initData, (address, uint256)) */\n      dup1\n      0x20\n      add\n      swap1\n      mload\n      dup2\n      add\n      swap1\n      tag_35\n      swap2\n      swap1\n      tag_36\n      jump\t// in\n    tag_35:\n        /* \"Factory/ERC20Airdropper/ERC20Airdropper.sol\":488:565  (address _token, uint256 _amount) = abi.decode(_initData, (address, uint256)) */\n      swap2\n      pop\n      swap2\n      pop\n        /* \"Factory/ERC20Airdropper/ERC20Airdropper.sol\":591:597  _token */\n      dup2\n        /* \"Factory/ERC20Airdropper/ERC20Airdropper.sol\":576:581  token */\n      0x00\n      0x00\n        /* \"Factory/ERC20Airdropper/ERC20Airdropper.sol\":576:598  token = IERC20(_token) */\n      0x0100\n      exp\n      dup2\n      sload\n      dup2\n      0xffffffffffffffffffffffffffffffffffffffff\n      mul\n      not\n      and\n      swap1\n      dup4\n      0xffffffffffffffffffffffffffffffffffffffff\n      and\n      mul\n      or\n      swap1\n      sstore\n      pop\n        /* \"Factory/ERC20Airdropper/ERC20Airdropper.sol\":618:625  _amount */\n      dup1\n        /* \"Factory/ERC20Airdropper/ERC20Airdropper.sol\":609:615  amount */\n      0x01\n        /* \"Factory/ERC20Airdropper/ERC20Airdropper.sol\":609:625  amount = _amount */\n      dup2\n      swap1\n      sstore\n      pop\n        /* \"Factory/ERC20Airdropper/ERC20Airdropper.sol\":650:654  true */\n      0x01\n        /* \"Factory/ERC20Airdropper/ERC20Airdropper.sol\":636:647  initialized */\n      0x02\n      0x00\n        /* \"Factory/ERC20Airdropper/ERC20Airdropper.sol\":636:654  initialized = true */\n      0x0100\n      exp\n      dup2\n      sload\n      dup2\n      0xff\n      mul\n      not\n      and\n      swap1\n      dup4\n      iszero\n      iszero\n      mul\n      or\n      swap1\n      sstore\n      pop\n        /* \"Factory/ERC20Airdropper/ERC20Airdropper.sol\":672:676  true */\n      0x01\n        /* \"Factory/ERC20Airdropper/ERC20Airdropper.sol\":665:676  return true */\n      swap3\n      pop\n      pop\n      pop\n        /* \"Factory/ERC20Airdropper/ERC20Airdropper.sol\":395:684  function initialize(bytes memory _initData) notInitialized external returns(bool) {... */\n      swap2\n      swap1\n      pop\n      jump\t// out\n        /* \"Factory/ERC20Airdropper/ERC20Airdropper.sol\":843:1290  function airdrop(address[] calldata receivers, uint256[] calldata amounts) external {... */\n    tag_17:\n        /* \"Factory/ERC20Airdropper/ERC20Airdropper.sol\":966:973  amounts */\n      dup2\n      dup2\n        /* \"Factory/ERC20Airdropper/ERC20Airdropper.sol\":966:980  amounts.length */\n      swap1\n      pop\n        /* \"Factory/ERC20Airdropper/ERC20Airdropper.sol\":946:955  receivers */\n      dup5\n      dup5\n        /* \"Factory/ERC20Airdropper/ERC20Airdropper.sol\":946:962  receivers.length */\n      swap1\n      pop\n        /* \"Factory/ERC20Airdropper/ERC20Airdropper.sol\":946:980  receivers.length == amounts.length */\n      eq\n        /* \"Factory/ERC20Airdropper/ERC20Airdropper.sol\":938:1007  require(receivers.length == amounts.length, \"arrays length mismatch\") */\n      tag_38\n      jumpi\n      mload(0x40)\n      0x08c379a000000000000000000000000000000000000000000000000000000000\n      dup2\n      mstore\n      0x04\n      add\n      tag_39\n      swap1\n      tag_40\n      jump\t// in\n    tag_39:\n      mload(0x40)\n      dup1\n      swap2\n      sub\n      swap1\n      revert\n    tag_38:\n        /* \"Factory/ERC20Airdropper/ERC20Airdropper.sol\":1072:1078  amount */\n      sload(0x01)\n        /* \"Factory/ERC20Airdropper/ERC20Airdropper.sol\":1026:1031  token */\n      0x00\n      0x00\n      swap1\n      sload\n      swap1\n      0x0100\n      exp\n      swap1\n      div\n      0xffffffffffffffffffffffffffffffffffffffff\n      and\n        /* \"Factory/ERC20Airdropper/ERC20Airdropper.sol\":1026:1041  token.allowance */\n      0xffffffffffffffffffffffffffffffffffffffff\n      and\n      0xdd62ed3e\n        /* \"Factory/ERC20Airdropper/ERC20Airdropper.sol\":1042:1052  msg.sender */\n      caller\n        /* \"Factory/ERC20Airdropper/ERC20Airdropper.sol\":1062:1066  this */\n      address\n        /* \"Factory/ERC20Airdropper/ERC20Airdropper.sol\":1026:1068  token.allowance(msg.sender, address(this)) */\n      mload(0x40)\n      dup4\n      0xffffffff\n      and\n      0xe0\n      shl\n      dup2\n      mstore\n      0x04\n      add\n      tag_41\n      swap3\n      swap2\n      swap1\n      tag_42\n      jump\t// in\n    tag_41:\n      0x20\n      mload(0x40)\n      dup1\n      dup4\n      sub\n      dup2\n      dup7\n      gas\n      staticcall\n      iszero\n      dup1\n      iszero\n      tag_44\n      jumpi\n      returndatacopy(0x00, 0x00, returndatasize)\n      revert(0x00, returndatasize)\n    tag_44:\n      pop\n      pop\n      pop\n      pop\n      mload(0x40)\n      returndatasize\n      not(0x1f)\n      0x1f\n      dup3\n      add\n      and\n      dup3\n      add\n      dup1\n      0x40\n      mstore\n      pop\n      dup2\n      add\n      swap1\n      tag_45\n      swap2\n      swap1\n      tag_46\n      jump\t// in\n    tag_45:\n        /* \"Factory/ERC20Airdropper/ERC20Airdropper.sol\":1026:1078  token.allowance(msg.sender, address(this)) >= amount */\n      lt\n      iszero\n        /* \"Factory/ERC20Airdropper/ERC20Airdropper.sol\":1018:1110  require(token.allowance(msg.sender, address(this)) >= amount, \"not enought approved tokens\") */\n      tag_47\n      jumpi\n      mload(0x40)\n      0x08c379a000000000000000000000000000000000000000000000000000000000\n      dup2\n      mstore\n      0x04\n      add\n      tag_48\n      swap1\n      tag_49\n      jump\t// in\n    tag_48:\n      mload(0x40)\n      dup1\n      swap2\n      sub\n      swap1\n      revert\n    tag_47:\n        /* \"Factory/ERC20Airdropper/ERC20Airdropper.sol\":1128:1137  uint256 i */\n      0x00\n        /* \"Factory/ERC20Airdropper/ERC20Airdropper.sol\":1140:1141  0 */\n      0x00\n        /* \"Factory/ERC20Airdropper/ERC20Airdropper.sol\":1128:1141  uint256 i = 0 */\n      swap1\n      pop\n        /* \"Factory/ERC20Airdropper/ERC20Airdropper.sol\":1123:1281  for (uint256 i = 0; i < receivers.length; i++) {... */\n    tag_50:\n        /* \"Factory/ERC20Airdropper/ERC20Airdropper.sol\":1147:1156  receivers */\n      dup5\n      dup5\n        /* \"Factory/ERC20Airdropper/ERC20Airdropper.sol\":1147:1163  receivers.length */\n      swap1\n      pop\n        /* \"Factory/ERC20Airdropper/ERC20Airdropper.sol\":1143:1144  i */\n      dup2\n        /* \"Factory/ERC20Airdropper/ERC20Airdropper.sol\":1143:1163  i < receivers.length */\n      lt\n        /* \"Factory/ERC20Airdropper/ERC20Airdropper.sol\":1123:1281  for (uint256 i = 0; i < receivers.length; i++) {... */\n      iszero\n      tag_51\n      jumpi\n        /* \"Factory/ERC20Airdropper/ERC20Airdropper.sol\":1193:1198  token */\n      0x00\n      0x00\n      swap1\n      sload\n      swap1\n      0x0100\n      exp\n      swap1\n      div\n      0xffffffffffffffffffffffffffffffffffffffff\n      and\n        /* \"Factory/ERC20Airdropper/ERC20Airdropper.sol\":1193:1211  token.transferFrom */\n      0xffffffffffffffffffffffffffffffffffffffff\n      and\n      0x23b872dd\n        /* \"Factory/ERC20Airdropper/ERC20Airdropper.sol\":1212:1222  msg.sender */\n      caller\n        /* \"Factory/ERC20Airdropper/ERC20Airdropper.sol\":1224:1233  receivers */\n      dup8\n      dup8\n        /* \"Factory/ERC20Airdropper/ERC20Airdropper.sol\":1234:1235  i */\n      dup6\n        /* \"Factory/ERC20Airdropper/ERC20Airdropper.sol\":1224:1236  receivers[i] */\n      dup2\n      dup2\n      lt\n      tag_53\n      jumpi\n      tag_54\n      tag_55\n      jump\t// in\n    tag_54:\n    tag_53:\n      swap1\n      pop\n      0x20\n      mul\n      add\n      0x20\n      dup2\n      add\n      swap1\n      tag_56\n      swap2\n      swap1\n      tag_57\n      jump\t// in\n    tag_56:\n        /* \"Factory/ERC20Airdropper/ERC20Airdropper.sol\":1238:1245  amounts */\n      dup7\n      dup7\n        /* \"Factory/ERC20Airdropper/ERC20Airdropper.sol\":1246:1247  i */\n      dup7\n        /* \"Factory/ERC20Airdropper/ERC20Airdropper.sol\":1238:1248  amounts[i] */\n      dup2\n      dup2\n      lt\n      tag_58\n      jumpi\n      tag_59\n      tag_55\n      jump\t// in\n    tag_59:\n    tag_58:\n      swap1\n      pop\n      0x20\n      mul\n      add\n      calldataload\n        /* \"Factory/ERC20Airdropper/ERC20Airdropper.sol\":1193:1249  token.transferFrom(msg.sender, receivers[i], amounts[i]) */\n      mload(0x40)\n      dup5\n      0xffffffff\n      and\n      0xe0\n      shl\n      dup2\n      mstore\n      0x04\n      add\n      tag_60\n      swap4\n      swap3\n      swap2\n      swap1\n      tag_61\n      jump\t// in\n    tag_60:\n      0x20\n      mload(0x40)\n      dup1\n      dup4\n      sub\n      dup2\n      0x00\n      dup8\n      gas\n      call\n      iszero\n      dup1\n      iszero\n      tag_63\n      jumpi\n      returndatacopy(0x00, 0x00, returndatasize)\n      revert(0x00, returndatasize)\n    tag_63:\n      pop\n      pop\n      pop\n      pop\n      mload(0x40)\n      returndatasize\n      not(0x1f)\n      0x1f\n      dup3\n      add\n      and\n      dup3\n      add\n      dup1\n      0x40\n      mstore\n      pop\n      dup2\n      add\n      swap1\n      tag_64\n      swap2\n      swap1\n      tag_65\n      jump\t// in\n    tag_64:\n        /* \"Factory/ERC20Airdropper/ERC20Airdropper.sol\":1185:1269  require(token.transferFrom(msg.sender, receivers[i], amounts[i]), \"transfer failed\") */\n      tag_66\n      jumpi\n      mload(0x40)\n      0x08c379a000000000000000000000000000000000000000000000000000000000\n      dup2\n      mstore\n      0x04\n      add\n      tag_67\n      swap1\n      tag_68\n      jump\t// in\n    tag_67:\n      mload(0x40)\n      dup1\n      swap2\n      sub\n      swap1\n      revert\n    tag_66:\n        /* \"Factory/ERC20Airdropper/ERC20Airdropper.sol\":1165:1168  i++ */\n      dup1\n      dup1\n      0x01\n      add\n      swap2\n      pop\n      pop\n        /* \"Factory/ERC20Airdropper/ERC20Airdropper.sol\":1123:1281  for (uint256 i = 0; i < receivers.length; i++) {... */\n      jump(tag_50)\n    tag_51:\n      pop\n        /* \"Factory/ERC20Airdropper/ERC20Airdropper.sol\":843:1290  function airdrop(address[] calldata receivers, uint256[] calldata amounts) external {... */\n      pop\n      pop\n      pop\n      pop\n      jump\t// out\n        /* \"Factory/ERC20Airdropper/ERC20Airdropper.sol\":179:200  uint256 public amount */\n    tag_19:\n      sload(0x01)\n      dup2\n      jump\t// out\n        /* \"Factory/ERC20Airdropper/ERC20Airdropper.sol\":692:835  function getInitData(address _token, uint256 _amount) external pure returns(bytes memory) {... */\n    tag_25:\n        /* \"Factory/ERC20Airdropper/ERC20Airdropper.sol\":768:780  bytes memory */\n      0x60\n        /* \"Factory/ERC20Airdropper/ERC20Airdropper.sol\":811:817  _token */\n      dup3\n        /* \"Factory/ERC20Airdropper/ERC20Airdropper.sol\":819:826  _amount */\n      dup3\n        /* \"Factory/ERC20Airdropper/ERC20Airdropper.sol\":800:827  abi.encode(_token, _amount) */\n      add(0x20, mload(0x40))\n      tag_70\n      swap3\n      swap2\n      swap1\n      tag_71\n      jump\t// in\n    tag_70:\n      mload(0x40)\n      0x20\n      dup2\n      dup4\n      sub\n      sub\n      dup2\n      mstore\n      swap1\n      0x40\n      mstore\n        /* \"Factory/ERC20Airdropper/ERC20Airdropper.sol\":793:827  return abi.encode(_token, _amount) */\n      swap1\n      pop\n        /* \"Factory/ERC20Airdropper/ERC20Airdropper.sol\":692:835  function getInitData(address _token, uint256 _amount) external pure returns(bytes memory) {... */\n      swap3\n      swap2\n      pop\n      pop\n      jump\t// out\n        /* \"Factory/ERC20Airdropper/ERC20Airdropper.sol\":153:172  IERC20 public token */\n    tag_29:\n      0x00\n      0x00\n      swap1\n      sload\n      swap1\n      0x0100\n      exp\n      swap1\n      div\n      0xffffffffffffffffffffffffffffffffffffffff\n      and\n      dup2\n      jump\t// out\n        /* \"#utility.yul\":7:82   */\n    tag_72:\n        /* \"#utility.yul\":40:46   */\n      0x00\n        /* \"#utility.yul\":73:75   */\n      0x40\n        /* \"#utility.yul\":67:76   */\n      mload\n        /* \"#utility.yul\":57:76   */\n      swap1\n      pop\n        /* \"#utility.yul\":7:82   */\n      swap1\n      jump\t// out\n        /* \"#utility.yul\":88:205   */\n    tag_73:\n        /* \"#utility.yul\":197:198   */\n      0x00\n        /* \"#utility.yul\":194:195   */\n      0x00\n        /* \"#utility.yul\":187:199   */\n      revert\n        /* \"#utility.yul\":211:328   */\n    tag_74:\n        /* \"#utility.yul\":320:321   */\n      0x00\n        /* \"#utility.yul\":317:318   */\n      0x00\n        /* \"#utility.yul\":310:322   */\n      revert\n        /* \"#utility.yul\":334:451   */\n    tag_75:\n        /* \"#utility.yul\":443:444   */\n      0x00\n        /* \"#utility.yul\":440:441   */\n      0x00\n        /* \"#utility.yul\":433:445   */\n      revert\n        /* \"#utility.yul\":457:574   */\n    tag_76:\n        /* \"#utility.yul\":566:567   */\n      0x00\n        /* \"#utility.yul\":563:564   */\n      0x00\n        /* \"#utility.yul\":556:568   */\n      revert\n        /* \"#utility.yul\":580:682   */\n    tag_77:\n        /* \"#utility.yul\":621:627   */\n      0x00\n        /* \"#utility.yul\":672:674   */\n      0x1f\n        /* \"#utility.yul\":668:675   */\n      not\n        /* \"#utility.yul\":663:665   */\n      0x1f\n        /* \"#utility.yul\":656:661   */\n      dup4\n        /* \"#utility.yul\":652:666   */\n      add\n        /* \"#utility.yul\":648:676   */\n      and\n        /* \"#utility.yul\":638:676   */\n      swap1\n      pop\n        /* \"#utility.yul\":580:682   */\n      swap2\n      swap1\n      pop\n      jump\t// out\n        /* \"#utility.yul\":688:868   */\n    tag_78:\n        /* \"#utility.yul\":736:813   */\n      0x4e487b7100000000000000000000000000000000000000000000000000000000\n        /* \"#utility.yul\":733:734   */\n      0x00\n        /* \"#utility.yul\":726:814   */\n      mstore\n        /* \"#utility.yul\":833:837   */\n      0x41\n        /* \"#utility.yul\":830:831   */\n      0x04\n        /* \"#utility.yul\":823:838   */\n      mstore\n        /* \"#utility.yul\":857:861   */\n      0x24\n        /* \"#utility.yul\":854:855   */\n      0x00\n        /* \"#utility.yul\":847:862   */\n      revert\n        /* \"#utility.yul\":874:1155   */\n    tag_79:\n        /* \"#utility.yul\":957:984   */\n      tag_131\n        /* \"#utility.yul\":979:983   */\n      dup3\n        /* \"#utility.yul\":957:984   */\n      tag_77\n      jump\t// in\n    tag_131:\n        /* \"#utility.yul\":949:955   */\n      dup2\n        /* \"#utility.yul\":945:985   */\n      add\n        /* \"#utility.yul\":1087:1093   */\n      dup2\n        /* \"#utility.yul\":1075:1085   */\n      dup2\n        /* \"#utility.yul\":1072:1094   */\n      lt\n        /* \"#utility.yul\":1051:1069   */\n      0xffffffffffffffff\n        /* \"#utility.yul\":1039:1049   */\n      dup3\n        /* \"#utility.yul\":1036:1070   */\n      gt\n        /* \"#utility.yul\":1033:1095   */\n      or\n        /* \"#utility.yul\":1030:1118   */\n      iszero\n      tag_132\n      jumpi\n        /* \"#utility.yul\":1098:1116   */\n      tag_133\n      tag_78\n      jump\t// in\n    tag_133:\n        /* \"#utility.yul\":1030:1118   */\n    tag_132:\n        /* \"#utility.yul\":1138:1148   */\n      dup1\n        /* \"#utility.yul\":1134:1136   */\n      0x40\n        /* \"#utility.yul\":1127:1149   */\n      mstore\n        /* \"#utility.yul\":917:1155   */\n      pop\n        /* \"#utility.yul\":874:1155   */\n      pop\n      pop\n      jump\t// out\n        /* \"#utility.yul\":1161:1290   */\n    tag_80:\n        /* \"#utility.yul\":1195:1201   */\n      0x00\n        /* \"#utility.yul\":1222:1242   */\n      tag_135\n      tag_72\n      jump\t// in\n    tag_135:\n        /* \"#utility.yul\":1212:1242   */\n      swap1\n      pop\n        /* \"#utility.yul\":1251:1284   */\n      tag_136\n        /* \"#utility.yul\":1279:1283   */\n      dup3\n        /* \"#utility.yul\":1271:1277   */\n      dup3\n        /* \"#utility.yul\":1251:1284   */\n      tag_79\n      jump\t// in\n    tag_136:\n        /* \"#utility.yul\":1161:1290   */\n      swap2\n      swap1\n      pop\n      jump\t// out\n        /* \"#utility.yul\":1296:1603   */\n    tag_81:\n        /* \"#utility.yul\":1357:1361   */\n      0x00\n        /* \"#utility.yul\":1447:1465   */\n      0xffffffffffffffff\n        /* \"#utility.yul\":1439:1445   */\n      dup3\n        /* \"#utility.yul\":1436:1466   */\n      gt\n        /* \"#utility.yul\":1433:1489   */\n      iszero\n      tag_138\n      jumpi\n        /* \"#utility.yul\":1469:1487   */\n      tag_139\n      tag_78\n      jump\t// in\n    tag_139:\n        /* \"#utility.yul\":1433:1489   */\n    tag_138:\n        /* \"#utility.yul\":1507:1536   */\n      tag_140\n        /* \"#utility.yul\":1529:1535   */\n      dup3\n        /* \"#utility.yul\":1507:1536   */\n      tag_77\n      jump\t// in\n    tag_140:\n        /* \"#utility.yul\":1499:1536   */\n      swap1\n      pop\n        /* \"#utility.yul\":1591:1595   */\n      0x20\n        /* \"#utility.yul\":1585:1589   */\n      dup2\n        /* \"#utility.yul\":1581:1596   */\n      add\n        /* \"#utility.yul\":1573:1596   */\n      swap1\n      pop\n        /* \"#utility.yul\":1296:1603   */\n      swap2\n      swap1\n      pop\n      jump\t// out\n        /* \"#utility.yul\":1609:1757   */\n    tag_82:\n        /* \"#utility.yul\":1707:1713   */\n      dup3\n        /* \"#utility.yul\":1702:1705   */\n      dup2\n        /* \"#utility.yul\":1697:1700   */\n      dup4\n        /* \"#utility.yul\":1684:1714   */\n      calldatacopy\n        /* \"#utility.yul\":1748:1749   */\n      0x00\n        /* \"#utility.yul\":1739:1745   */\n      dup4\n        /* \"#utility.yul\":1734:1737   */\n      dup4\n        /* \"#utility.yul\":1730:1746   */\n      add\n        /* \"#utility.yul\":1723:1750   */\n      mstore\n        /* \"#utility.yul\":1609:1757   */\n      pop\n      pop\n      pop\n      jump\t// out\n        /* \"#utility.yul\":1763:2186   */\n    tag_83:\n        /* \"#utility.yul\":1840:1845   */\n      0x00\n        /* \"#utility.yul\":1865:1930   */\n      tag_143\n        /* \"#utility.yul\":1881:1929   */\n      tag_144\n        /* \"#utility.yul\":1922:1928   */\n      dup5\n        /* \"#utility.yul\":1881:1929   */\n      tag_81\n      jump\t// in\n    tag_144:\n        /* \"#utility.yul\":1865:1930   */\n      tag_80\n      jump\t// in\n    tag_143:\n        /* \"#utility.yul\":1856:1930   */\n      swap1\n      pop\n        /* \"#utility.yul\":1953:1959   */\n      dup3\n        /* \"#utility.yul\":1946:1951   */\n      dup2\n        /* \"#utility.yul\":1939:1960   */\n      mstore\n        /* \"#utility.yul\":1991:1995   */\n      0x20\n        /* \"#utility.yul\":1984:1989   */\n      dup2\n        /* \"#utility.yul\":1980:1996   */\n      add\n        /* \"#utility.yul\":2029:2032   */\n      dup5\n        /* \"#utility.yul\":2020:2026   */\n      dup5\n        /* \"#utility.yul\":2015:2018   */\n      dup5\n        /* \"#utility.yul\":2011:2027   */\n      add\n        /* \"#utility.yul\":2008:2033   */\n      gt\n        /* \"#utility.yul\":2005:2117   */\n      iszero\n      tag_145\n      jumpi\n        /* \"#utility.yul\":2036:2115   */\n      tag_146\n      tag_76\n      jump\t// in\n    tag_146:\n        /* \"#utility.yul\":2005:2117   */\n    tag_145:\n        /* \"#utility.yul\":2126:2180   */\n      tag_147\n        /* \"#utility.yul\":2173:2179   */\n      dup5\n        /* \"#utility.yul\":2168:2171   */\n      dup3\n        /* \"#utility.yul\":2163:2166   */\n      dup6\n        /* \"#utility.yul\":2126:2180   */\n      tag_82\n      jump\t// in\n    tag_147:\n        /* \"#utility.yul\":1846:2186   */\n      pop\n        /* \"#utility.yul\":1763:2186   */\n      swap4\n      swap3\n      pop\n      pop\n      pop\n      jump\t// out\n        /* \"#utility.yul\":2205:2543   */\n    tag_84:\n        /* \"#utility.yul\":2260:2265   */\n      0x00\n        /* \"#utility.yul\":2309:2312   */\n      dup3\n        /* \"#utility.yul\":2302:2306   */\n      0x1f\n        /* \"#utility.yul\":2294:2300   */\n      dup4\n        /* \"#utility.yul\":2290:2307   */\n      add\n        /* \"#utility.yul\":2286:2313   */\n      slt\n        /* \"#utility.yul\":2276:2398   */\n      tag_149\n      jumpi\n        /* \"#utility.yul\":2317:2396   */\n      tag_150\n      tag_75\n      jump\t// in\n    tag_150:\n        /* \"#utility.yul\":2276:2398   */\n    tag_149:\n        /* \"#utility.yul\":2434:2440   */\n      dup2\n        /* \"#utility.yul\":2421:2441   */\n      calldataload\n        /* \"#utility.yul\":2459:2537   */\n      tag_151\n        /* \"#utility.yul\":2533:2536   */\n      dup5\n        /* \"#utility.yul\":2525:2531   */\n      dup3\n        /* \"#utility.yul\":2518:2522   */\n      0x20\n        /* \"#utility.yul\":2510:2516   */\n      dup7\n        /* \"#utility.yul\":2506:2523   */\n      add\n        /* \"#utility.yul\":2459:2537   */\n      tag_83\n      jump\t// in\n    tag_151:\n        /* \"#utility.yul\":2450:2537   */\n      swap2\n      pop\n        /* \"#utility.yul\":2266:2543   */\n      pop\n        /* \"#utility.yul\":2205:2543   */\n      swap3\n      swap2\n      pop\n      pop\n      jump\t// out\n        /* \"#utility.yul\":2549:3056   */\n    tag_10:\n        /* \"#utility.yul\":2617:2623   */\n      0x00\n        /* \"#utility.yul\":2666:2668   */\n      0x20\n        /* \"#utility.yul\":2654:2663   */\n      dup3\n        /* \"#utility.yul\":2645:2652   */\n      dup5\n        /* \"#utility.yul\":2641:2664   */\n      sub\n        /* \"#utility.yul\":2637:2669   */\n      slt\n        /* \"#utility.yul\":2634:2753   */\n      iszero\n      tag_153\n      jumpi\n        /* \"#utility.yul\":2672:2751   */\n      tag_154\n      tag_73\n      jump\t// in\n    tag_154:\n        /* \"#utility.yul\":2634:2753   */\n    tag_153:\n        /* \"#utility.yul\":2820:2821   */\n      0x00\n        /* \"#utility.yul\":2809:2818   */\n      dup3\n        /* \"#utility.yul\":2805:2822   */\n      add\n        /* \"#utility.yul\":2792:2823   */\n      calldataload\n        /* \"#utility.yul\":2850:2868   */\n      0xffffffffffffffff\n        /* \"#utility.yul\":2842:2848   */\n      dup2\n        /* \"#utility.yul\":2839:2869   */\n      gt\n        /* \"#utility.yul\":2836:2953   */\n      iszero\n      tag_155\n      jumpi\n        /* \"#utility.yul\":2872:2951   */\n      tag_156\n      tag_74\n      jump\t// in\n    tag_156:\n        /* \"#utility.yul\":2836:2953   */\n    tag_155:\n        /* \"#utility.yul\":2977:3039   */\n      tag_157\n        /* \"#utility.yul\":3031:3038   */\n      dup5\n        /* \"#utility.yul\":3022:3028   */\n      dup3\n        /* \"#utility.yul\":3011:3020   */\n      dup6\n        /* \"#utility.yul\":3007:3029   */\n      add\n        /* \"#utility.yul\":2977:3039   */\n      tag_84\n      jump\t// in\n    tag_157:\n        /* \"#utility.yul\":2967:3039   */\n      swap2\n      pop\n        /* \"#utility.yul\":2763:3049   */\n      pop\n        /* \"#utility.yul\":2549:3056   */\n      swap3\n      swap2\n      pop\n      pop\n      jump\t// out\n        /* \"#utility.yul\":3062:3152   */\n    tag_85:\n        /* \"#utility.yul\":3096:3103   */\n      0x00\n        /* \"#utility.yul\":3139:3144   */\n      dup2\n        /* \"#utility.yul\":3132:3145   */\n      iszero\n        /* \"#utility.yul\":3125:3146   */\n      iszero\n        /* \"#utility.yul\":3114:3146   */\n      swap1\n      pop\n        /* \"#utility.yul\":3062:3152   */\n      swap2\n      swap1\n      pop\n      jump\t// out\n        /* \"#utility.yul\":3158:3267   */\n    tag_86:\n        /* \"#utility.yul\":3239:3260   */\n      tag_160\n        /* \"#utility.yul\":3254:3259   */\n      dup2\n        /* \"#utility.yul\":3239:3260   */\n      tag_85\n      jump\t// in\n    tag_160:\n        /* \"#utility.yul\":3234:3237   */\n      dup3\n        /* \"#utility.yul\":3227:3261   */\n      mstore\n        /* \"#utility.yul\":3158:3267   */\n      pop\n      pop\n      jump\t// out\n        /* \"#utility.yul\":3273:3483   */\n    tag_13:\n        /* \"#utility.yul\":3360:3364   */\n      0x00\n        /* \"#utility.yul\":3398:3400   */\n      0x20\n        /* \"#utility.yul\":3387:3396   */\n      dup3\n        /* \"#utility.yul\":3383:3401   */\n      add\n        /* \"#utility.yul\":3375:3401   */\n      swap1\n      pop\n        /* \"#utility.yul\":3411:3476   */\n      tag_162\n        /* \"#utility.yul\":3473:3474   */\n      0x00\n        /* \"#utility.yul\":3462:3471   */\n      dup4\n        /* \"#utility.yul\":3458:3475   */\n      add\n        /* \"#utility.yul\":3449:3455   */\n      dup5\n        /* \"#utility.yul\":3411:3476   */\n      tag_86\n      jump\t// in\n    tag_162:\n        /* \"#utility.yul\":3273:3483   */\n      swap3\n      swap2\n      pop\n      pop\n      jump\t// out\n        /* \"#utility.yul\":3489:3606   */\n    tag_87:\n        /* \"#utility.yul\":3598:3599   */\n      0x00\n        /* \"#utility.yul\":3595:3596   */\n      0x00\n        /* \"#utility.yul\":3588:3600   */\n      revert\n        /* \"#utility.yul\":3612:3729   */\n    tag_88:\n        /* \"#utility.yul\":3721:3722   */\n      0x00\n        /* \"#utility.yul\":3718:3719   */\n      0x00\n        /* \"#utility.yul\":3711:3723   */\n      revert\n        /* \"#utility.yul\":3752:4320   */\n    tag_89:\n        /* \"#utility.yul\":3825:3833   */\n      0x00\n        /* \"#utility.yul\":3835:3841   */\n      0x00\n        /* \"#utility.yul\":3885:3888   */\n      dup4\n        /* \"#utility.yul\":3878:3882   */\n      0x1f\n        /* \"#utility.yul\":3870:3876   */\n      dup5\n        /* \"#utility.yul\":3866:3883   */\n      add\n        /* \"#utility.yul\":3862:3889   */\n      slt\n        /* \"#utility.yul\":3852:3974   */\n      tag_166\n      jumpi\n        /* \"#utility.yul\":3893:3972   */\n      tag_167\n      tag_75\n      jump\t// in\n    tag_167:\n        /* \"#utility.yul\":3852:3974   */\n    tag_166:\n        /* \"#utility.yul\":4006:4012   */\n      dup3\n        /* \"#utility.yul\":3993:4013   */\n      calldataload\n        /* \"#utility.yul\":3983:4013   */\n      swap1\n      pop\n        /* \"#utility.yul\":4036:4054   */\n      0xffffffffffffffff\n        /* \"#utility.yul\":4028:4034   */\n      dup2\n        /* \"#utility.yul\":4025:4055   */\n      gt\n        /* \"#utility.yul\":4022:4139   */\n      iszero\n      tag_168\n      jumpi\n        /* \"#utility.yul\":4058:4137   */\n      tag_169\n      tag_87\n      jump\t// in\n    tag_169:\n        /* \"#utility.yul\":4022:4139   */\n    tag_168:\n        /* \"#utility.yul\":4172:4176   */\n      0x20\n        /* \"#utility.yul\":4164:4170   */\n      dup4\n        /* \"#utility.yul\":4160:4177   */\n      add\n        /* \"#utility.yul\":4148:4177   */\n      swap2\n      pop\n        /* \"#utility.yul\":4226:4229   */\n      dup4\n        /* \"#utility.yul\":4218:4222   */\n      0x20\n        /* \"#utility.yul\":4210:4216   */\n      dup3\n        /* \"#utility.yul\":4206:4223   */\n      mul\n        /* \"#utility.yul\":4196:4204   */\n      dup4\n        /* \"#utility.yul\":4192:4224   */\n      add\n        /* \"#utility.yul\":4189:4230   */\n      gt\n        /* \"#utility.yul\":4186:4314   */\n      iszero\n      tag_170\n      jumpi\n        /* \"#utility.yul\":4233:4312   */\n      tag_171\n      tag_88\n      jump\t// in\n    tag_171:\n        /* \"#utility.yul\":4186:4314   */\n    tag_170:\n        /* \"#utility.yul\":3752:4320   */\n      swap3\n      pop\n      swap3\n      swap1\n      pop\n      jump\t// out\n        /* \"#utility.yul\":4343:4911   */\n    tag_90:\n        /* \"#utility.yul\":4416:4424   */\n      0x00\n        /* \"#utility.yul\":4426:4432   */\n      0x00\n        /* \"#utility.yul\":4476:4479   */\n      dup4\n        /* \"#utility.yul\":4469:4473   */\n      0x1f\n        /* \"#utility.yul\":4461:4467   */\n      dup5\n        /* \"#utility.yul\":4457:4474   */\n      add\n        /* \"#utility.yul\":4453:4480   */\n      slt\n        /* \"#utility.yul\":4443:4565   */\n      tag_173\n      jumpi\n        /* \"#utility.yul\":4484:4563   */\n      tag_174\n      tag_75\n      jump\t// in\n    tag_174:\n        /* \"#utility.yul\":4443:4565   */\n    tag_173:\n        /* \"#utility.yul\":4597:4603   */\n      dup3\n        /* \"#utility.yul\":4584:4604   */\n      calldataload\n        /* \"#utility.yul\":4574:4604   */\n      swap1\n      pop\n        /* \"#utility.yul\":4627:4645   */\n      0xffffffffffffffff\n        /* \"#utility.yul\":4619:4625   */\n      dup2\n        /* \"#utility.yul\":4616:4646   */\n      gt\n        /* \"#utility.yul\":4613:4730   */\n      iszero\n      tag_175\n      jumpi\n        /* \"#utility.yul\":4649:4728   */\n      tag_176\n      tag_87\n      jump\t// in\n    tag_176:\n        /* \"#utility.yul\":4613:4730   */\n    tag_175:\n        /* \"#utility.yul\":4763:4767   */\n      0x20\n        /* \"#utility.yul\":4755:4761   */\n      dup4\n        /* \"#utility.yul\":4751:4768   */\n      add\n        /* \"#utility.yul\":4739:4768   */\n      swap2\n      pop\n        /* \"#utility.yul\":4817:4820   */\n      dup4\n        /* \"#utility.yul\":4809:4813   */\n      0x20\n        /* \"#utility.yul\":4801:4807   */\n      dup3\n        /* \"#utility.yul\":4797:4814   */\n      mul\n        /* \"#utility.yul\":4787:4795   */\n      dup4\n        /* \"#utility.yul\":4783:4815   */\n      add\n        /* \"#utility.yul\":4780:4821   */\n      gt\n        /* \"#utility.yul\":4777:4905   */\n      iszero\n      tag_177\n      jumpi\n        /* \"#utility.yul\":4824:4903   */\n      tag_178\n      tag_88\n      jump\t// in\n    tag_178:\n        /* \"#utility.yul\":4777:4905   */\n    tag_177:\n        /* \"#utility.yul\":4343:4911   */\n      swap3\n      pop\n      swap3\n      swap1\n      pop\n      jump\t// out\n        /* \"#utility.yul\":4917:5851   */\n    tag_16:\n        /* \"#utility.yul\":5039:5045   */\n      0x00\n        /* \"#utility.yul\":5047:5053   */\n      0x00\n        /* \"#utility.yul\":5055:5061   */\n      0x00\n        /* \"#utility.yul\":5063:5069   */\n      0x00\n        /* \"#utility.yul\":5112:5114   */\n      0x40\n        /* \"#utility.yul\":5100:5109   */\n      dup6\n        /* \"#utility.yul\":5091:5098   */\n      dup8\n        /* \"#utility.yul\":5087:5110   */\n      sub\n        /* \"#utility.yul\":5083:5115   */\n      slt\n        /* \"#utility.yul\":5080:5199   */\n      iszero\n      tag_180\n      jumpi\n        /* \"#utility.yul\":5118:5197   */\n      tag_181\n      tag_73\n      jump\t// in\n    tag_181:\n        /* \"#utility.yul\":5080:5199   */\n    tag_180:\n        /* \"#utility.yul\":5266:5267   */\n      0x00\n        /* \"#utility.yul\":5255:5264   */\n      dup6\n        /* \"#utility.yul\":5251:5268   */\n      add\n        /* \"#utility.yul\":5238:5269   */\n      calldataload\n        /* \"#utility.yul\":5296:5314   */\n      0xffffffffffffffff\n        /* \"#utility.yul\":5288:5294   */\n      dup2\n        /* \"#utility.yul\":5285:5315   */\n      gt\n        /* \"#utility.yul\":5282:5399   */\n      iszero\n      tag_182\n      jumpi\n        /* \"#utility.yul\":5318:5397   */\n      tag_183\n      tag_74\n      jump\t// in\n    tag_183:\n        /* \"#utility.yul\":5282:5399   */\n    tag_182:\n        /* \"#utility.yul\":5431:5511   */\n      tag_184\n        /* \"#utility.yul\":5503:5510   */\n      dup8\n        /* \"#utility.yul\":5494:5500   */\n      dup3\n        /* \"#utility.yul\":5483:5492   */\n      dup9\n        /* \"#utility.yul\":5479:5501   */\n      add\n        /* \"#utility.yul\":5431:5511   */\n      tag_89\n      jump\t// in\n    tag_184:\n        /* \"#utility.yul\":5413:5511   */\n      swap5\n      pop\n      swap5\n      pop\n        /* \"#utility.yul\":5209:5521   */\n      pop\n        /* \"#utility.yul\":5588:5590   */\n      0x20\n        /* \"#utility.yul\":5577:5586   */\n      dup6\n        /* \"#utility.yul\":5573:5591   */\n      add\n        /* \"#utility.yul\":5560:5592   */\n      calldataload\n        /* \"#utility.yul\":5619:5637   */\n      0xffffffffffffffff\n        /* \"#utility.yul\":5611:5617   */\n      dup2\n        /* \"#utility.yul\":5608:5638   */\n      gt\n        /* \"#utility.yul\":5605:5722   */\n      iszero\n      tag_185\n      jumpi\n        /* \"#utility.yul\":5641:5720   */\n      tag_186\n      tag_74\n      jump\t// in\n    tag_186:\n        /* \"#utility.yul\":5605:5722   */\n    tag_185:\n        /* \"#utility.yul\":5754:5834   */\n      tag_187\n        /* \"#utility.yul\":5826:5833   */\n      dup8\n        /* \"#utility.yul\":5817:5823   */\n      dup3\n        /* \"#utility.yul\":5806:5815   */\n      dup9\n        /* \"#utility.yul\":5802:5824   */\n      add\n        /* \"#utility.yul\":5754:5834   */\n      tag_90\n      jump\t// in\n    tag_187:\n        /* \"#utility.yul\":5736:5834   */\n      swap3\n      pop\n      swap3\n      pop\n        /* \"#utility.yul\":5531:5844   */\n      pop\n        /* \"#utility.yul\":4917:5851   */\n      swap3\n      swap6\n      swap2\n      swap5\n      pop\n      swap3\n      pop\n      jump\t// out\n        /* \"#utility.yul\":5857:5934   */\n    tag_91:\n        /* \"#utility.yul\":5894:5901   */\n      0x00\n        /* \"#utility.yul\":5923:5928   */\n      dup2\n        /* \"#utility.yul\":5912:5928   */\n      swap1\n      pop\n        /* \"#utility.yul\":5857:5934   */\n      swap2\n      swap1\n      pop\n      jump\t// out\n        /* \"#utility.yul\":5940:6058   */\n    tag_92:\n        /* \"#utility.yul\":6027:6051   */\n      tag_190\n        /* \"#utility.yul\":6045:6050   */\n      dup2\n        /* \"#utility.yul\":6027:6051   */\n      tag_91\n      jump\t// in\n    tag_190:\n        /* \"#utility.yul\":6022:6025   */\n      dup3\n        /* \"#utility.yul\":6015:6052   */\n      mstore\n        /* \"#utility.yul\":5940:6058   */\n      pop\n      pop\n      jump\t// out\n        /* \"#utility.yul\":6064:6286   */\n    tag_21:\n        /* \"#utility.yul\":6157:6161   */\n      0x00\n        /* \"#utility.yul\":6195:6197   */\n      0x20\n        /* \"#utility.yul\":6184:6193   */\n      dup3\n        /* \"#utility.yul\":6180:6198   */\n      add\n        /* \"#utility.yul\":6172:6198   */\n      swap1\n      pop\n        /* \"#utility.yul\":6208:6279   */\n      tag_192\n        /* \"#utility.yul\":6276:6277   */\n      0x00\n        /* \"#utility.yul\":6265:6274   */\n      dup4\n        /* \"#utility.yul\":6261:6278   */\n      add\n        /* \"#utility.yul\":6252:6258   */\n      dup5\n        /* \"#utility.yul\":6208:6279   */\n      tag_92\n      jump\t// in\n    tag_192:\n        /* \"#utility.yul\":6064:6286   */\n      swap3\n      swap2\n      pop\n      pop\n      jump\t// out\n        /* \"#utility.yul\":6292:6418   */\n    tag_93:\n        /* \"#utility.yul\":6329:6336   */\n      0x00\n        /* \"#utility.yul\":6369:6411   */\n      0xffffffffffffffffffffffffffffffffffffffff\n        /* \"#utility.yul\":6362:6367   */\n      dup3\n        /* \"#utility.yul\":6358:6412   */\n      and\n        /* \"#utility.yul\":6347:6412   */\n      swap1\n      pop\n        /* \"#utility.yul\":6292:6418   */\n      swap2\n      swap1\n      pop\n      jump\t// out\n        /* \"#utility.yul\":6424:6520   */\n    tag_94:\n        /* \"#utility.yul\":6461:6468   */\n      0x00\n        /* \"#utility.yul\":6490:6514   */\n      tag_195\n        /* \"#utility.yul\":6508:6513   */\n      dup3\n        /* \"#utility.yul\":6490:6514   */\n      tag_93\n      jump\t// in\n    tag_195:\n        /* \"#utility.yul\":6479:6514   */\n      swap1\n      pop\n        /* \"#utility.yul\":6424:6520   */\n      swap2\n      swap1\n      pop\n      jump\t// out\n        /* \"#utility.yul\":6526:6648   */\n    tag_95:\n        /* \"#utility.yul\":6599:6623   */\n      tag_197\n        /* \"#utility.yul\":6617:6622   */\n      dup2\n        /* \"#utility.yul\":6599:6623   */\n      tag_94\n      jump\t// in\n    tag_197:\n        /* \"#utility.yul\":6592:6597   */\n      dup2\n        /* \"#utility.yul\":6589:6624   */\n      eq\n        /* \"#utility.yul\":6579:6642   */\n      tag_198\n      jumpi\n        /* \"#utility.yul\":6638:6639   */\n      0x00\n        /* \"#utility.yul\":6635:6636   */\n      0x00\n        /* \"#utility.yul\":6628:6640   */\n      revert\n        /* \"#utility.yul\":6579:6642   */\n    tag_198:\n        /* \"#utility.yul\":6526:6648   */\n      pop\n      jump\t// out\n        /* \"#utility.yul\":6654:6793   */\n    tag_96:\n        /* \"#utility.yul\":6700:6705   */\n      0x00\n        /* \"#utility.yul\":6738:6744   */\n      dup2\n        /* \"#utility.yul\":6725:6745   */\n      calldataload\n        /* \"#utility.yul\":6716:6745   */\n      swap1\n      pop\n        /* \"#utility.yul\":6754:6787   */\n      tag_200\n        /* \"#utility.yul\":6781:6786   */\n      dup2\n        /* \"#utility.yul\":6754:6787   */\n      tag_95\n      jump\t// in\n    tag_200:\n        /* \"#utility.yul\":6654:6793   */\n      swap3\n      swap2\n      pop\n      pop\n      jump\t// out\n        /* \"#utility.yul\":6799:6921   */\n    tag_97:\n        /* \"#utility.yul\":6872:6896   */\n      tag_202\n        /* \"#utility.yul\":6890:6895   */\n      dup2\n        /* \"#utility.yul\":6872:6896   */\n      tag_91\n      jump\t// in\n    tag_202:\n        /* \"#utility.yul\":6865:6870   */\n      dup2\n        /* \"#utility.yul\":6862:6897   */\n      eq\n        /* \"#utility.yul\":6852:6915   */\n      tag_203\n      jumpi\n        /* \"#utility.yul\":6911:6912   */\n      0x00\n        /* \"#utility.yul\":6908:6909   */\n      0x00\n        /* \"#utility.yul\":6901:6913   */\n      revert\n        /* \"#utility.yul\":6852:6915   */\n    tag_203:\n        /* \"#utility.yul\":6799:6921   */\n      pop\n      jump\t// out\n        /* \"#utility.yul\":6927:7066   */\n    tag_98:\n        /* \"#utility.yul\":6973:6978   */\n      0x00\n        /* \"#utility.yul\":7011:7017   */\n      dup2\n        /* \"#utility.yul\":6998:7018   */\n      calldataload\n        /* \"#utility.yul\":6989:7018   */\n      swap1\n      pop\n        /* \"#utility.yul\":7027:7060   */\n      tag_205\n        /* \"#utility.yul\":7054:7059   */\n      dup2\n        /* \"#utility.yul\":7027:7060   */\n      tag_97\n      jump\t// in\n    tag_205:\n        /* \"#utility.yul\":6927:7066   */\n      swap3\n      swap2\n      pop\n      pop\n      jump\t// out\n        /* \"#utility.yul\":7072:7546   */\n    tag_24:\n        /* \"#utility.yul\":7140:7146   */\n      0x00\n        /* \"#utility.yul\":7148:7154   */\n      0x00\n        /* \"#utility.yul\":7197:7199   */\n      0x40\n        /* \"#utility.yul\":7185:7194   */\n      dup4\n        /* \"#utility.yul\":7176:7183   */\n      dup6\n        /* \"#utility.yul\":7172:7195   */\n      sub\n        /* \"#utility.yul\":7168:7200   */\n      slt\n        /* \"#utility.yul\":7165:7284   */\n      iszero\n      tag_207\n      jumpi\n        /* \"#utility.yul\":7203:7282   */\n      tag_208\n      tag_73\n      jump\t// in\n    tag_208:\n        /* \"#utility.yul\":7165:7284   */\n    tag_207:\n        /* \"#utility.yul\":7323:7324   */\n      0x00\n        /* \"#utility.yul\":7348:7401   */\n      tag_209\n        /* \"#utility.yul\":7393:7400   */\n      dup6\n        /* \"#utility.yul\":7384:7390   */\n      dup3\n        /* \"#utility.yul\":7373:7382   */\n      dup7\n        /* \"#utility.yul\":7369:7391   */\n      add\n        /* \"#utility.yul\":7348:7401   */\n      tag_96\n      jump\t// in\n    tag_209:\n        /* \"#utility.yul\":7338:7401   */\n      swap3\n      pop\n        /* \"#utility.yul\":7294:7411   */\n      pop\n        /* \"#utility.yul\":7450:7452   */\n      0x20\n        /* \"#utility.yul\":7476:7529   */\n      tag_210\n        /* \"#utility.yul\":7521:7528   */\n      dup6\n        /* \"#utility.yul\":7512:7518   */\n      dup3\n        /* \"#utility.yul\":7501:7510   */\n      dup7\n        /* \"#utility.yul\":7497:7519   */\n      add\n        /* \"#utility.yul\":7476:7529   */\n      tag_98\n      jump\t// in\n    tag_210:\n        /* \"#utility.yul\":7466:7529   */\n      swap2\n      pop\n        /* \"#utility.yul\":7421:7539   */\n      pop\n        /* \"#utility.yul\":7072:7546   */\n      swap3\n      pop\n      swap3\n      swap1\n      pop\n      jump\t// out\n        /* \"#utility.yul\":7552:7650   */\n    tag_99:\n        /* \"#utility.yul\":7603:7609   */\n      0x00\n        /* \"#utility.yul\":7637:7642   */\n      dup2\n        /* \"#utility.yul\":7631:7643   */\n      mload\n        /* \"#utility.yul\":7621:7643   */\n      swap1\n      pop\n        /* \"#utility.yul\":7552:7650   */\n      swap2\n      swap1\n      pop\n      jump\t// out\n        /* \"#utility.yul\":7656:7824   */\n    tag_100:\n        /* \"#utility.yul\":7739:7750   */\n      0x00\n        /* \"#utility.yul\":7773:7779   */\n      dup3\n        /* \"#utility.yul\":7768:7771   */\n      dup3\n        /* \"#utility.yul\":7761:7780   */\n      mstore\n        /* \"#utility.yul\":7813:7817   */\n      0x20\n        /* \"#utility.yul\":7808:7811   */\n      dup3\n        /* \"#utility.yul\":7804:7818   */\n      add\n        /* \"#utility.yul\":7789:7818   */\n      swap1\n      pop\n        /* \"#utility.yul\":7656:7824   */\n      swap3\n      swap2\n      pop\n      pop\n      jump\t// out\n        /* \"#utility.yul\":7830:7969   */\n    tag_101:\n        /* \"#utility.yul\":7919:7925   */\n      dup3\n        /* \"#utility.yul\":7914:7917   */\n      dup2\n        /* \"#utility.yul\":7909:7912   */\n      dup4\n        /* \"#utility.yul\":7903:7926   */\n      mcopy\n        /* \"#utility.yul\":7960:7961   */\n      0x00\n        /* \"#utility.yul\":7951:7957   */\n      dup4\n        /* \"#utility.yul\":7946:7949   */\n      dup4\n        /* \"#utility.yul\":7942:7958   */\n      add\n        /* \"#utility.yul\":7935:7962   */\n      mstore\n        /* \"#utility.yul\":7830:7969   */\n      pop\n      pop\n      pop\n      jump\t// out\n        /* \"#utility.yul\":7975:8348   */\n    tag_102:\n        /* \"#utility.yul\":8061:8064   */\n      0x00\n        /* \"#utility.yul\":8089:8127   */\n      tag_215\n        /* \"#utility.yul\":8121:8126   */\n      dup3\n        /* \"#utility.yul\":8089:8127   */\n      tag_99\n      jump\t// in\n    tag_215:\n        /* \"#utility.yul\":8143:8213   */\n      tag_216\n        /* \"#utility.yul\":8206:8212   */\n      dup2\n        /* \"#utility.yul\":8201:8204   */\n      dup6\n        /* \"#utility.yul\":8143:8213   */\n      tag_100\n      jump\t// in\n    tag_216:\n        /* \"#utility.yul\":8136:8213   */\n      swap4\n      pop\n        /* \"#utility.yul\":8222:8287   */\n      tag_217\n        /* \"#utility.yul\":8280:8286   */\n      dup2\n        /* \"#utility.yul\":8275:8278   */\n      dup6\n        /* \"#utility.yul\":8268:8272   */\n      0x20\n        /* \"#utility.yul\":8261:8266   */\n      dup7\n        /* \"#utility.yul\":8257:8273   */\n      add\n        /* \"#utility.yul\":8222:8287   */\n      tag_101\n      jump\t// in\n    tag_217:\n        /* \"#utility.yul\":8312:8341   */\n      tag_218\n        /* \"#utility.yul\":8334:8340   */\n      dup2\n        /* \"#utility.yul\":8312:8341   */\n      tag_77\n      jump\t// in\n    tag_218:\n        /* \"#utility.yul\":8307:8310   */\n      dup5\n        /* \"#utility.yul\":8303:8342   */\n      add\n        /* \"#utility.yul\":8296:8342   */\n      swap2\n      pop\n        /* \"#utility.yul\":8065:8348   */\n      pop\n        /* \"#utility.yul\":7975:8348   */\n      swap3\n      swap2\n      pop\n      pop\n      jump\t// out\n        /* \"#utility.yul\":8354:8663   */\n    tag_27:\n        /* \"#utility.yul\":8465:8469   */\n      0x00\n        /* \"#utility.yul\":8503:8505   */\n      0x20\n        /* \"#utility.yul\":8492:8501   */\n      dup3\n        /* \"#utility.yul\":8488:8506   */\n      add\n        /* \"#utility.yul\":8480:8506   */\n      swap1\n      pop\n        /* \"#utility.yul\":8552:8561   */\n      dup2\n        /* \"#utility.yul\":8546:8550   */\n      dup2\n        /* \"#utility.yul\":8542:8562   */\n      sub\n        /* \"#utility.yul\":8538:8539   */\n      0x00\n        /* \"#utility.yul\":8527:8536   */\n      dup4\n        /* \"#utility.yul\":8523:8540   */\n      add\n        /* \"#utility.yul\":8516:8563   */\n      mstore\n        /* \"#utility.yul\":8580:8656   */\n      tag_220\n        /* \"#utility.yul\":8651:8655   */\n      dup2\n        /* \"#utility.yul\":8642:8648   */\n      dup5\n        /* \"#utility.yul\":8580:8656   */\n      tag_102\n      jump\t// in\n    tag_220:\n        /* \"#utility.yul\":8572:8656   */\n      swap1\n      pop\n        /* \"#utility.yul\":8354:8663   */\n      swap3\n      swap2\n      pop\n      pop\n      jump\t// out\n        /* \"#utility.yul\":8669:8729   */\n    tag_103:\n        /* \"#utility.yul\":8697:8700   */\n      0x00\n        /* \"#utility.yul\":8718:8723   */\n      dup2\n        /* \"#utility.yul\":8711:8723   */\n      swap1\n      pop\n        /* \"#utility.yul\":8669:8729   */\n      swap2\n      swap1\n      pop\n      jump\t// out\n        /* \"#utility.yul\":8735:8877   */\n    tag_104:\n        /* \"#utility.yul\":8785:8794   */\n      0x00\n        /* \"#utility.yul\":8818:8871   */\n      tag_223\n        /* \"#utility.yul\":8836:8870   */\n      tag_224\n        /* \"#utility.yul\":8845:8869   */\n      tag_225\n        /* \"#utility.yul\":8863:8868   */\n      dup5\n        /* \"#utility.yul\":8845:8869   */\n      tag_93\n      jump\t// in\n    tag_225:\n        /* \"#utility.yul\":8836:8870   */\n      tag_103\n      jump\t// in\n    tag_224:\n        /* \"#utility.yul\":8818:8871   */\n      tag_93\n      jump\t// in\n    tag_223:\n        /* \"#utility.yul\":8805:8871   */\n      swap1\n      pop\n        /* \"#utility.yul\":8735:8877   */\n      swap2\n      swap1\n      pop\n      jump\t// out\n        /* \"#utility.yul\":8883:9009   */\n    tag_105:\n        /* \"#utility.yul\":8933:8942   */\n      0x00\n        /* \"#utility.yul\":8966:9003   */\n      tag_227\n        /* \"#utility.yul\":8997:9002   */\n      dup3\n        /* \"#utility.yul\":8966:9003   */\n      tag_104\n      jump\t// in\n    tag_227:\n        /* \"#utility.yul\":8953:9003   */\n      swap1\n      pop\n        /* \"#utility.yul\":8883:9009   */\n      swap2\n      swap1\n      pop\n      jump\t// out\n        /* \"#utility.yul\":9015:9155   */\n    tag_106:\n        /* \"#utility.yul\":9079:9088   */\n      0x00\n        /* \"#utility.yul\":9112:9149   */\n      tag_229\n        /* \"#utility.yul\":9143:9148   */\n      dup3\n        /* \"#utility.yul\":9112:9149   */\n      tag_105\n      jump\t// in\n    tag_229:\n        /* \"#utility.yul\":9099:9149   */\n      swap1\n      pop\n        /* \"#utility.yul\":9015:9155   */\n      swap2\n      swap1\n      pop\n      jump\t// out\n        /* \"#utility.yul\":9161:9320   */\n    tag_107:\n        /* \"#utility.yul\":9262:9313   */\n      tag_231\n        /* \"#utility.yul\":9307:9312   */\n      dup2\n        /* \"#utility.yul\":9262:9313   */\n      tag_106\n      jump\t// in\n    tag_231:\n        /* \"#utility.yul\":9257:9260   */\n      dup3\n        /* \"#utility.yul\":9250:9314   */\n      mstore\n        /* \"#utility.yul\":9161:9320   */\n      pop\n      pop\n      jump\t// out\n        /* \"#utility.yul\":9326:9576   */\n    tag_31:\n        /* \"#utility.yul\":9433:9437   */\n      0x00\n        /* \"#utility.yul\":9471:9473   */\n      0x20\n        /* \"#utility.yul\":9460:9469   */\n      dup3\n        /* \"#utility.yul\":9456:9474   */\n      add\n        /* \"#utility.yul\":9448:9474   */\n      swap1\n      pop\n        /* \"#utility.yul\":9484:9569   */\n      tag_233\n        /* \"#utility.yul\":9566:9567   */\n      0x00\n        /* \"#utility.yul\":9555:9564   */\n      dup4\n        /* \"#utility.yul\":9551:9568   */\n      add\n        /* \"#utility.yul\":9542:9548   */\n      dup5\n        /* \"#utility.yul\":9484:9569   */\n      tag_107\n      jump\t// in\n    tag_233:\n        /* \"#utility.yul\":9326:9576   */\n      swap3\n      swap2\n      pop\n      pop\n      jump\t// out\n        /* \"#utility.yul\":9582:9686   */\n    tag_108:\n        /* \"#utility.yul\":9627:9634   */\n      0x00\n        /* \"#utility.yul\":9656:9680   */\n      tag_235\n        /* \"#utility.yul\":9674:9679   */\n      dup3\n        /* \"#utility.yul\":9656:9680   */\n      tag_93\n      jump\t// in\n    tag_235:\n        /* \"#utility.yul\":9645:9680   */\n      swap1\n      pop\n        /* \"#utility.yul\":9582:9686   */\n      swap2\n      swap1\n      pop\n      jump\t// out\n        /* \"#utility.yul\":9692:9830   */\n    tag_109:\n        /* \"#utility.yul\":9773:9805   */\n      tag_237\n        /* \"#utility.yul\":9799:9804   */\n      dup2\n        /* \"#utility.yul\":9773:9805   */\n      tag_108\n      jump\t// in\n    tag_237:\n        /* \"#utility.yul\":9766:9771   */\n      dup2\n        /* \"#utility.yul\":9763:9806   */\n      eq\n        /* \"#utility.yul\":9753:9824   */\n      tag_238\n      jumpi\n        /* \"#utility.yul\":9820:9821   */\n      0x00\n        /* \"#utility.yul\":9817:9818   */\n      0x00\n        /* \"#utility.yul\":9810:9822   */\n      revert\n        /* \"#utility.yul\":9753:9824   */\n    tag_238:\n        /* \"#utility.yul\":9692:9830   */\n      pop\n      jump\t// out\n        /* \"#utility.yul\":9836:9995   */\n    tag_110:\n        /* \"#utility.yul\":9901:9906   */\n      0x00\n        /* \"#utility.yul\":9932:9938   */\n      dup2\n        /* \"#utility.yul\":9926:9939   */\n      mload\n        /* \"#utility.yul\":9917:9939   */\n      swap1\n      pop\n        /* \"#utility.yul\":9948:9989   */\n      tag_240\n        /* \"#utility.yul\":9983:9988   */\n      dup2\n        /* \"#utility.yul\":9948:9989   */\n      tag_109\n      jump\t// in\n    tag_240:\n        /* \"#utility.yul\":9836:9995   */\n      swap3\n      swap2\n      pop\n      pop\n      jump\t// out\n        /* \"#utility.yul\":10001:10144   */\n    tag_111:\n        /* \"#utility.yul\":10058:10063   */\n      0x00\n        /* \"#utility.yul\":10089:10095   */\n      dup2\n        /* \"#utility.yul\":10083:10096   */\n      mload\n        /* \"#utility.yul\":10074:10096   */\n      swap1\n      pop\n        /* \"#utility.yul\":10105:10138   */\n      tag_242\n        /* \"#utility.yul\":10132:10137   */\n      dup2\n        /* \"#utility.yul\":10105:10138   */\n      tag_97\n      jump\t// in\n    tag_242:\n        /* \"#utility.yul\":10001:10144   */\n      swap3\n      swap2\n      pop\n      pop\n      jump\t// out\n        /* \"#utility.yul\":10150:10673   */\n    tag_36:\n        /* \"#utility.yul\":10237:10243   */\n      0x00\n        /* \"#utility.yul\":10245:10251   */\n      0x00\n        /* \"#utility.yul\":10294:10296   */\n      0x40\n        /* \"#utility.yul\":10282:10291   */\n      dup4\n        /* \"#utility.yul\":10273:10280   */\n      dup6\n        /* \"#utility.yul\":10269:10292   */\n      sub\n        /* \"#utility.yul\":10265:10297   */\n      slt\n        /* \"#utility.yul\":10262:10381   */\n      iszero\n      tag_244\n      jumpi\n        /* \"#utility.yul\":10300:10379   */\n      tag_245\n      tag_73\n      jump\t// in\n    tag_245:\n        /* \"#utility.yul\":10262:10381   */\n    tag_244:\n        /* \"#utility.yul\":10420:10421   */\n      0x00\n        /* \"#utility.yul\":10445:10517   */\n      tag_246\n        /* \"#utility.yul\":10509:10516   */\n      dup6\n        /* \"#utility.yul\":10500:10506   */\n      dup3\n        /* \"#utility.yul\":10489:10498   */\n      dup7\n        /* \"#utility.yul\":10485:10507   */\n      add\n        /* \"#utility.yul\":10445:10517   */\n      tag_110\n      jump\t// in\n    tag_246:\n        /* \"#utility.yul\":10435:10517   */\n      swap3\n      pop\n        /* \"#utility.yul\":10391:10527   */\n      pop\n        /* \"#utility.yul\":10566:10568   */\n      0x20\n        /* \"#utility.yul\":10592:10656   */\n      tag_247\n        /* \"#utility.yul\":10648:10655   */\n      dup6\n        /* \"#utility.yul\":10639:10645   */\n      dup3\n        /* \"#utility.yul\":10628:10637   */\n      dup7\n        /* \"#utility.yul\":10624:10646   */\n      add\n        /* \"#utility.yul\":10592:10656   */\n      tag_111\n      jump\t// in\n    tag_247:\n        /* \"#utility.yul\":10582:10656   */\n      swap2\n      pop\n        /* \"#utility.yul\":10537:10666   */\n      pop\n        /* \"#utility.yul\":10150:10673   */\n      swap3\n      pop\n      swap3\n      swap1\n      pop\n      jump\t// out\n        /* \"#utility.yul\":10679:10848   */\n    tag_112:\n        /* \"#utility.yul\":10763:10774   */\n      0x00\n        /* \"#utility.yul\":10797:10803   */\n      dup3\n        /* \"#utility.yul\":10792:10795   */\n      dup3\n        /* \"#utility.yul\":10785:10804   */\n      mstore\n        /* \"#utility.yul\":10837:10841   */\n      0x20\n        /* \"#utility.yul\":10832:10835   */\n      dup3\n        /* \"#utility.yul\":10828:10842   */\n      add\n        /* \"#utility.yul\":10813:10842   */\n      swap1\n      pop\n        /* \"#utility.yul\":10679:10848   */\n      swap3\n      swap2\n      pop\n      pop\n      jump\t// out\n        /* \"#utility.yul\":10854:11026   */\n    tag_113:\n        /* \"#utility.yul\":10994:11018   */\n      0x617272617973206c656e677468206d69736d6174636800000000000000000000\n        /* \"#utility.yul\":10990:10991   */\n      0x00\n        /* \"#utility.yul\":10982:10988   */\n      dup3\n        /* \"#utility.yul\":10978:10992   */\n      add\n        /* \"#utility.yul\":10971:11019   */\n      mstore\n        /* \"#utility.yul\":10854:11026   */\n      pop\n      jump\t// out\n        /* \"#utility.yul\":11032:11398   */\n    tag_114:\n        /* \"#utility.yul\":11174:11177   */\n      0x00\n        /* \"#utility.yul\":11195:11262   */\n      tag_251\n        /* \"#utility.yul\":11259:11261   */\n      0x16\n        /* \"#utility.yul\":11254:11257   */\n      dup4\n        /* \"#utility.yul\":11195:11262   */\n      tag_112\n      jump\t// in\n    tag_251:\n        /* \"#utility.yul\":11188:11262   */\n      swap2\n      pop\n        /* \"#utility.yul\":11271:11364   */\n      tag_252\n        /* \"#utility.yul\":11360:11363   */\n      dup3\n        /* \"#utility.yul\":11271:11364   */\n      tag_113\n      jump\t// in\n    tag_252:\n        /* \"#utility.yul\":11389:11391   */\n      0x20\n        /* \"#utility.yul\":11384:11387   */\n      dup3\n        /* \"#utility.yul\":11380:11392   */\n      add\n        /* \"#utility.yul\":11373:11392   */\n      swap1\n      pop\n        /* \"#utility.yul\":11032:11398   */\n      swap2\n      swap1\n      pop\n      jump\t// out\n        /* \"#utility.yul\":11404:11823   */\n    tag_40:\n        /* \"#utility.yul\":11570:11574   */\n      0x00\n        /* \"#utility.yul\":11608:11610   */\n      0x20\n        /* \"#utility.yul\":11597:11606   */\n      dup3\n        /* \"#utility.yul\":11593:11611   */\n      add\n        /* \"#utility.yul\":11585:11611   */\n      swap1\n      pop\n        /* \"#utility.yul\":11657:11666   */\n      dup2\n        /* \"#utility.yul\":11651:11655   */\n      dup2\n        /* \"#utility.yul\":11647:11667   */\n      sub\n        /* \"#utility.yul\":11643:11644   */\n      0x00\n        /* \"#utility.yul\":11632:11641   */\n      dup4\n        /* \"#utility.yul\":11628:11645   */\n      add\n        /* \"#utility.yul\":11621:11668   */\n      mstore\n        /* \"#utility.yul\":11685:11816   */\n      tag_254\n        /* \"#utility.yul\":11811:11815   */\n      dup2\n        /* \"#utility.yul\":11685:11816   */\n      tag_114\n      jump\t// in\n    tag_254:\n        /* \"#utility.yul\":11677:11816   */\n      swap1\n      pop\n        /* \"#utility.yul\":11404:11823   */\n      swap2\n      swap1\n      pop\n      jump\t// out\n        /* \"#utility.yul\":11829:11947   */\n    tag_115:\n        /* \"#utility.yul\":11916:11940   */\n      tag_256\n        /* \"#utility.yul\":11934:11939   */\n      dup2\n        /* \"#utility.yul\":11916:11940   */\n      tag_94\n      jump\t// in\n    tag_256:\n        /* \"#utility.yul\":11911:11914   */\n      dup3\n        /* \"#utility.yul\":11904:11941   */\n      mstore\n        /* \"#utility.yul\":11829:11947   */\n      pop\n      pop\n      jump\t// out\n        /* \"#utility.yul\":11953:12285   */\n    tag_42:\n        /* \"#utility.yul\":12074:12078   */\n      0x00\n        /* \"#utility.yul\":12112:12114   */\n      0x40\n        /* \"#utility.yul\":12101:12110   */\n      dup3\n        /* \"#utility.yul\":12097:12115   */\n      add\n        /* \"#utility.yul\":12089:12115   */\n      swap1\n      pop\n        /* \"#utility.yul\":12125:12196   */\n      tag_258\n        /* \"#utility.yul\":12193:12194   */\n      0x00\n        /* \"#utility.yul\":12182:12191   */\n      dup4\n        /* \"#utility.yul\":12178:12195   */\n      add\n        /* \"#utility.yul\":12169:12175   */\n      dup6\n        /* \"#utility.yul\":12125:12196   */\n      tag_115\n      jump\t// in\n    tag_258:\n        /* \"#utility.yul\":12206:12278   */\n      tag_259\n        /* \"#utility.yul\":12274:12276   */\n      0x20\n        /* \"#utility.yul\":12263:12272   */\n      dup4\n        /* \"#utility.yul\":12259:12277   */\n      add\n        /* \"#utility.yul\":12250:12256   */\n      dup5\n        /* \"#utility.yul\":12206:12278   */\n      tag_115\n      jump\t// in\n    tag_259:\n        /* \"#utility.yul\":11953:12285   */\n      swap4\n      swap3\n      pop\n      pop\n      pop\n      jump\t// out\n        /* \"#utility.yul\":12291:12642   */\n    tag_46:\n        /* \"#utility.yul\":12361:12367   */\n      0x00\n        /* \"#utility.yul\":12410:12412   */\n      0x20\n        /* \"#utility.yul\":12398:12407   */\n      dup3\n        /* \"#utility.yul\":12389:12396   */\n      dup5\n        /* \"#utility.yul\":12385:12408   */\n      sub\n        /* \"#utility.yul\":12381:12413   */\n      slt\n        /* \"#utility.yul\":12378:12497   */\n      iszero\n      tag_261\n      jumpi\n        /* \"#utility.yul\":12416:12495   */\n      tag_262\n      tag_73\n      jump\t// in\n    tag_262:\n        /* \"#utility.yul\":12378:12497   */\n    tag_261:\n        /* \"#utility.yul\":12536:12537   */\n      0x00\n        /* \"#utility.yul\":12561:12625   */\n      tag_263\n        /* \"#utility.yul\":12617:12624   */\n      dup5\n        /* \"#utility.yul\":12608:12614   */\n      dup3\n        /* \"#utility.yul\":12597:12606   */\n      dup6\n        /* \"#utility.yul\":12593:12615   */\n      add\n        /* \"#utility.yul\":12561:12625   */\n      tag_111\n      jump\t// in\n    tag_263:\n        /* \"#utility.yul\":12551:12625   */\n      swap2\n      pop\n        /* \"#utility.yul\":12507:12635   */\n      pop\n        /* \"#utility.yul\":12291:12642   */\n      swap3\n      swap2\n      pop\n      pop\n      jump\t// out\n        /* \"#utility.yul\":12648:12825   */\n    tag_116:\n        /* \"#utility.yul\":12788:12817   */\n      0x6e6f7420656e6f7567687420617070726f76656420746f6b656e730000000000\n        /* \"#utility.yul\":12784:12785   */\n      0x00\n        /* \"#utility.yul\":12776:12782   */\n      dup3\n        /* \"#utility.yul\":12772:12786   */\n      add\n        /* \"#utility.yul\":12765:12818   */\n      mstore\n        /* \"#utility.yul\":12648:12825   */\n      pop\n      jump\t// out\n        /* \"#utility.yul\":12831:13197   */\n    tag_117:\n        /* \"#utility.yul\":12973:12976   */\n      0x00\n        /* \"#utility.yul\":12994:13061   */\n      tag_266\n        /* \"#utility.yul\":13058:13060   */\n      0x1b\n        /* \"#utility.yul\":13053:13056   */\n      dup4\n        /* \"#utility.yul\":12994:13061   */\n      tag_112\n      jump\t// in\n    tag_266:\n        /* \"#utility.yul\":12987:13061   */\n      swap2\n      pop\n        /* \"#utility.yul\":13070:13163   */\n      tag_267\n        /* \"#utility.yul\":13159:13162   */\n      dup3\n        /* \"#utility.yul\":13070:13163   */\n      tag_116\n      jump\t// in\n    tag_267:\n        /* \"#utility.yul\":13188:13190   */\n      0x20\n        /* \"#utility.yul\":13183:13186   */\n      dup3\n        /* \"#utility.yul\":13179:13191   */\n      add\n        /* \"#utility.yul\":13172:13191   */\n      swap1\n      pop\n        /* \"#utility.yul\":12831:13197   */\n      swap2\n      swap1\n      pop\n      jump\t// out\n        /* \"#utility.yul\":13203:13622   */\n    tag_49:\n        /* \"#utility.yul\":13369:13373   */\n      0x00\n        /* \"#utility.yul\":13407:13409   */\n      0x20\n        /* \"#utility.yul\":13396:13405   */\n      dup3\n        /* \"#utility.yul\":13392:13410   */\n      add\n        /* \"#utility.yul\":13384:13410   */\n      swap1\n      pop\n        /* \"#utility.yul\":13456:13465   */\n      dup2\n        /* \"#utility.yul\":13450:13454   */\n      dup2\n        /* \"#utility.yul\":13446:13466   */\n      sub\n        /* \"#utility.yul\":13442:13443   */\n      0x00\n        /* \"#utility.yul\":13431:13440   */\n      dup4\n        /* \"#utility.yul\":13427:13444   */\n      add\n        /* \"#utility.yul\":13420:13467   */\n      mstore\n        /* \"#utility.yul\":13484:13615   */\n      tag_269\n        /* \"#utility.yul\":13610:13614   */\n      dup2\n        /* \"#utility.yul\":13484:13615   */\n      tag_117\n      jump\t// in\n    tag_269:\n        /* \"#utility.yul\":13476:13615   */\n      swap1\n      pop\n        /* \"#utility.yul\":13203:13622   */\n      swap2\n      swap1\n      pop\n      jump\t// out\n        /* \"#utility.yul\":13628:13808   */\n    tag_55:\n        /* \"#utility.yul\":13676:13753   */\n      0x4e487b7100000000000000000000000000000000000000000000000000000000\n        /* \"#utility.yul\":13673:13674   */\n      0x00\n        /* \"#utility.yul\":13666:13754   */\n      mstore\n        /* \"#utility.yul\":13773:13777   */\n      0x32\n        /* \"#utility.yul\":13770:13771   */\n      0x04\n        /* \"#utility.yul\":13763:13778   */\n      mstore\n        /* \"#utility.yul\":13797:13801   */\n      0x24\n        /* \"#utility.yul\":13794:13795   */\n      0x00\n        /* \"#utility.yul\":13787:13802   */\n      revert\n        /* \"#utility.yul\":13814:14143   */\n    tag_57:\n        /* \"#utility.yul\":13873:13879   */\n      0x00\n        /* \"#utility.yul\":13922:13924   */\n      0x20\n        /* \"#utility.yul\":13910:13919   */\n      dup3\n        /* \"#utility.yul\":13901:13908   */\n      dup5\n        /* \"#utility.yul\":13897:13920   */\n      sub\n        /* \"#utility.yul\":13893:13925   */\n      slt\n        /* \"#utility.yul\":13890:14009   */\n      iszero\n      tag_272\n      jumpi\n        /* \"#utility.yul\":13928:14007   */\n      tag_273\n      tag_73\n      jump\t// in\n    tag_273:\n        /* \"#utility.yul\":13890:14009   */\n    tag_272:\n        /* \"#utility.yul\":14048:14049   */\n      0x00\n        /* \"#utility.yul\":14073:14126   */\n      tag_274\n        /* \"#utility.yul\":14118:14125   */\n      dup5\n        /* \"#utility.yul\":14109:14115   */\n      dup3\n        /* \"#utility.yul\":14098:14107   */\n      dup6\n        /* \"#utility.yul\":14094:14116   */\n      add\n        /* \"#utility.yul\":14073:14126   */\n      tag_96\n      jump\t// in\n    tag_274:\n        /* \"#utility.yul\":14063:14126   */\n      swap2\n      pop\n        /* \"#utility.yul\":14019:14136   */\n      pop\n        /* \"#utility.yul\":13814:14143   */\n      swap3\n      swap2\n      pop\n      pop\n      jump\t// out\n        /* \"#utility.yul\":14149:14591   */\n    tag_61:\n        /* \"#utility.yul\":14298:14302   */\n      0x00\n        /* \"#utility.yul\":14336:14338   */\n      0x60\n        /* \"#utility.yul\":14325:14334   */\n      dup3\n        /* \"#utility.yul\":14321:14339   */\n      add\n        /* \"#utility.yul\":14313:14339   */\n      swap1\n      pop\n        /* \"#utility.yul\":14349:14420   */\n      tag_276\n        /* \"#utility.yul\":14417:14418   */\n      0x00\n        /* \"#utility.yul\":14406:14415   */\n      dup4\n        /* \"#utility.yul\":14402:14419   */\n      add\n        /* \"#utility.yul\":14393:14399   */\n      dup7\n        /* \"#utility.yul\":14349:14420   */\n      tag_115\n      jump\t// in\n    tag_276:\n        /* \"#utility.yul\":14430:14502   */\n      tag_277\n        /* \"#utility.yul\":14498:14500   */\n      0x20\n        /* \"#utility.yul\":14487:14496   */\n      dup4\n        /* \"#utility.yul\":14483:14501   */\n      add\n        /* \"#utility.yul\":14474:14480   */\n      dup6\n        /* \"#utility.yul\":14430:14502   */\n      tag_115\n      jump\t// in\n    tag_277:\n        /* \"#utility.yul\":14512:14584   */\n      tag_278\n        /* \"#utility.yul\":14580:14582   */\n      0x40\n        /* \"#utility.yul\":14569:14578   */\n      dup4\n        /* \"#utility.yul\":14565:14583   */\n      add\n        /* \"#utility.yul\":14556:14562   */\n      dup5\n        /* \"#utility.yul\":14512:14584   */\n      tag_92\n      jump\t// in\n    tag_278:\n        /* \"#utility.yul\":14149:14591   */\n      swap5\n      swap4\n      pop\n      pop\n      pop\n      pop\n      jump\t// out\n        /* \"#utility.yul\":14597:14713   */\n    tag_118:\n        /* \"#utility.yul\":14667:14688   */\n      tag_280\n        /* \"#utility.yul\":14682:14687   */\n      dup2\n        /* \"#utility.yul\":14667:14688   */\n      tag_85\n      jump\t// in\n    tag_280:\n        /* \"#utility.yul\":14660:14665   */\n      dup2\n        /* \"#utility.yul\":14657:14689   */\n      eq\n        /* \"#utility.yul\":14647:14707   */\n      tag_281\n      jumpi\n        /* \"#utility.yul\":14703:14704   */\n      0x00\n        /* \"#utility.yul\":14700:14701   */\n      0x00\n        /* \"#utility.yul\":14693:14705   */\n      revert\n        /* \"#utility.yul\":14647:14707   */\n    tag_281:\n        /* \"#utility.yul\":14597:14713   */\n      pop\n      jump\t// out\n        /* \"#utility.yul\":14719:14856   */\n    tag_119:\n        /* \"#utility.yul\":14773:14778   */\n      0x00\n        /* \"#utility.yul\":14804:14810   */\n      dup2\n        /* \"#utility.yul\":14798:14811   */\n      mload\n        /* \"#utility.yul\":14789:14811   */\n      swap1\n      pop\n        /* \"#utility.yul\":14820:14850   */\n      tag_283\n        /* \"#utility.yul\":14844:14849   */\n      dup2\n        /* \"#utility.yul\":14820:14850   */\n      tag_118\n      jump\t// in\n    tag_283:\n        /* \"#utility.yul\":14719:14856   */\n      swap3\n      swap2\n      pop\n      pop\n      jump\t// out\n        /* \"#utility.yul\":14862:15207   */\n    tag_65:\n        /* \"#utility.yul\":14929:14935   */\n      0x00\n        /* \"#utility.yul\":14978:14980   */\n      0x20\n        /* \"#utility.yul\":14966:14975   */\n      dup3\n        /* \"#utility.yul\":14957:14964   */\n      dup5\n        /* \"#utility.yul\":14953:14976   */\n      sub\n        /* \"#utility.yul\":14949:14981   */\n      slt\n        /* \"#utility.yul\":14946:15065   */\n      iszero\n      tag_285\n      jumpi\n        /* \"#utility.yul\":14984:15063   */\n      tag_286\n      tag_73\n      jump\t// in\n    tag_286:\n        /* \"#utility.yul\":14946:15065   */\n    tag_285:\n        /* \"#utility.yul\":15104:15105   */\n      0x00\n        /* \"#utility.yul\":15129:15190   */\n      tag_287\n        /* \"#utility.yul\":15182:15189   */\n      dup5\n        /* \"#utility.yul\":15173:15179   */\n      dup3\n        /* \"#utility.yul\":15162:15171   */\n      dup6\n        /* \"#utility.yul\":15158:15180   */\n      add\n        /* \"#utility.yul\":15129:15190   */\n      tag_119\n      jump\t// in\n    tag_287:\n        /* \"#utility.yul\":15119:15190   */\n      swap2\n      pop\n        /* \"#utility.yul\":15075:15200   */\n      pop\n        /* \"#utility.yul\":14862:15207   */\n      swap3\n      swap2\n      pop\n      pop\n      jump\t// out\n        /* \"#utility.yul\":15213:15378   */\n    tag_120:\n        /* \"#utility.yul\":15353:15370   */\n      0x7472616e73666572206661696c65640000000000000000000000000000000000\n        /* \"#utility.yul\":15349:15350   */\n      0x00\n        /* \"#utility.yul\":15341:15347   */\n      dup3\n        /* \"#utility.yul\":15337:15351   */\n      add\n        /* \"#utility.yul\":15330:15371   */\n      mstore\n        /* \"#utility.yul\":15213:15378   */\n      pop\n      jump\t// out\n        /* \"#utility.yul\":15384:15750   */\n    tag_121:\n        /* \"#utility.yul\":15526:15529   */\n      0x00\n        /* \"#utility.yul\":15547:15614   */\n      tag_290\n        /* \"#utility.yul\":15611:15613   */\n      0x0f\n        /* \"#utility.yul\":15606:15609   */\n      dup4\n        /* \"#utility.yul\":15547:15614   */\n      tag_112\n      jump\t// in\n    tag_290:\n        /* \"#utility.yul\":15540:15614   */\n      swap2\n      pop\n        /* \"#utility.yul\":15623:15716   */\n      tag_291\n        /* \"#utility.yul\":15712:15715   */\n      dup3\n        /* \"#utility.yul\":15623:15716   */\n      tag_120\n      jump\t// in\n    tag_291:\n        /* \"#utility.yul\":15741:15743   */\n      0x20\n        /* \"#utility.yul\":15736:15739   */\n      dup3\n        /* \"#utility.yul\":15732:15744   */\n      add\n        /* \"#utility.yul\":15725:15744   */\n      swap1\n      pop\n        /* \"#utility.yul\":15384:15750   */\n      swap2\n      swap1\n      pop\n      jump\t// out\n        /* \"#utility.yul\":15756:16175   */\n    tag_68:\n        /* \"#utility.yul\":15922:15926   */\n      0x00\n        /* \"#utility.yul\":15960:15962   */\n      0x20\n        /* \"#utility.yul\":15949:15958   */\n      dup3\n        /* \"#utility.yul\":15945:15963   */\n      add\n        /* \"#utility.yul\":15937:15963   */\n      swap1\n      pop\n        /* \"#utility.yul\":16009:16018   */\n      dup2\n        /* \"#utility.yul\":16003:16007   */\n      dup2\n        /* \"#utility.yul\":15999:16019   */\n      sub\n        /* \"#utility.yul\":15995:15996   */\n      0x00\n        /* \"#utility.yul\":15984:15993   */\n      dup4\n        /* \"#utility.yul\":15980:15997   */\n      add\n        /* \"#utility.yul\":15973:16020   */\n      mstore\n        /* \"#utility.yul\":16037:16168   */\n      tag_293\n        /* \"#utility.yul\":16163:16167   */\n      dup2\n        /* \"#utility.yul\":16037:16168   */\n      tag_121\n      jump\t// in\n    tag_293:\n        /* \"#utility.yul\":16029:16168   */\n      swap1\n      pop\n        /* \"#utility.yul\":15756:16175   */\n      swap2\n      swap1\n      pop\n      jump\t// out\n        /* \"#utility.yul\":16181:16513   */\n    tag_71:\n        /* \"#utility.yul\":16302:16306   */\n      0x00\n        /* \"#utility.yul\":16340:16342   */\n      0x40\n        /* \"#utility.yul\":16329:16338   */\n      dup3\n        /* \"#utility.yul\":16325:16343   */\n      add\n        /* \"#utility.yul\":16317:16343   */\n      swap1\n      pop\n        /* \"#utility.yul\":16353:16424   */\n      tag_295\n        /* \"#utility.yul\":16421:16422   */\n      0x00\n        /* \"#utility.yul\":16410:16419   */\n      dup4\n        /* \"#utility.yul\":16406:16423   */\n      add\n        /* \"#utility.yul\":16397:16403   */\n      dup6\n        /* \"#utility.yul\":16353:16424   */\n      tag_115\n      jump\t// in\n    tag_295:\n        /* \"#utility.yul\":16434:16506   */\n      tag_296\n        /* \"#utility.yul\":16502:16504   */\n      0x20\n        /* \"#utility.yul\":16491:16500   */\n      dup4\n        /* \"#utility.yul\":16487:16505   */\n      add\n        /* \"#utility.yul\":16478:16484   */\n      dup5\n        /* \"#utility.yul\":16434:16506   */\n      tag_92\n      jump\t// in\n    tag_296:\n        /* \"#utility.yul\":16181:16513   */\n      swap4\n      swap3\n      pop\n      pop\n      pop\n      jump\t// out\n\n    auxdata: 0xa264697066735822122056ec3bcd13953925c38991b662fe2684262f413f621a223d2e637abe53d40b7464736f6c634300081d0033\n}\n",
				"bytecode": {
					"linkReferences": {},
					"object": "6080604052348015600e575f5ffd5b50610cec8061001c5f395ff3fe608060405234801561000f575f5ffd5b5060043610610055575f3560e01c8063439fab91146100595780636724348214610089578063aa8c217c146100a5578063b551c00a146100c3578063fc0c546a146100f3575b5f5ffd5b610073600480360381019061006e91906105e6565b610111565b6040516100809190610647565b60405180910390f35b6100a3600480360381019061009e9190610712565b6101dd565b005b6100ad610443565b6040516100ba91906107a8565b60405180910390f35b6100dd60048036038101906100d89190610845565b610449565b6040516100ea91906108e3565b60405180910390f35b6100fb610475565b604051610108919061095e565b60405180910390f35b5f60025f9054906101000a900460ff1615610158576040517f0dc149f000000000000000000000000000000000000000000000000000000000815260040160405180910390fd5b5f5f8380602001905181019061016e91906109c6565b91509150815f5f6101000a81548173ffffffffffffffffffffffffffffffffffffffff021916908373ffffffffffffffffffffffffffffffffffffffff16021790555080600181905550600160025f6101000a81548160ff021916908315150217905550600192505050919050565b818190508484905014610225576040517f08c379a000000000000000000000000000000000000000000000000000000000815260040161021c90610a5e565b60405180910390fd5b6001545f5f9054906101000a900473ffffffffffffffffffffffffffffffffffffffff1673ffffffffffffffffffffffffffffffffffffffff1663dd62ed3e33306040518363ffffffff1660e01b8152600401610283929190610a8b565b602060405180830381865afa15801561029e573d5f5f3e3d5ffd5b505050506040513d601f19601f820116820180604052508101906102c29190610ab2565b1015610303576040517f08c379a00000000000000000000000000000000000000000000000000000000081526004016102fa90610b27565b60405180910390fd5b5f5f90505b8484905081101561043c575f5f9054906101000a900473ffffffffffffffffffffffffffffffffffffffff1673ffffffffffffffffffffffffffffffffffffffff166323b872dd3387878581811061036357610362610b45565b5b90506020020160208101906103789190610b72565b86868681811061038b5761038a610b45565b5b905060200201356040518463ffffffff1660e01b81526004016103b093929190610b9d565b6020604051808303815f875af11580156103cc573d5f5f3e3d5ffd5b505050506040513d601f19601f820116820180604052508101906103f09190610bfc565b61042f576040517f08c379a000000000000000000000000000000000000000000000000000000000815260040161042690610c71565b60405180910390fd5b8080600101915050610308565b5050505050565b60015481565b6060828260405160200161045e929190610c8f565b604051602081830303815290604052905092915050565b5f5f9054906101000a900473ffffffffffffffffffffffffffffffffffffffff1681565b5f604051905090565b5f5ffd5b5f5ffd5b5f5ffd5b5f5ffd5b5f601f19601f8301169050919050565b7f4e487b71000000000000000000000000000000000000000000000000000000005f52604160045260245ffd5b6104f8826104b2565b810181811067ffffffffffffffff82111715610517576105166104c2565b5b80604052505050565b5f610529610499565b905061053582826104ef565b919050565b5f67ffffffffffffffff821115610554576105536104c2565b5b61055d826104b2565b9050602081019050919050565b828183375f83830152505050565b5f61058a6105858461053a565b610520565b9050828152602081018484840111156105a6576105a56104ae565b5b6105b184828561056a565b509392505050565b5f82601f8301126105cd576105cc6104aa565b5b81356105dd848260208601610578565b91505092915050565b5f602082840312156105fb576105fa6104a2565b5b5f82013567ffffffffffffffff811115610618576106176104a6565b5b610624848285016105b9565b91505092915050565b5f8115159050919050565b6106418161062d565b82525050565b5f60208201905061065a5f830184610638565b92915050565b5f5ffd5b5f5ffd5b5f5f83601f84011261067d5761067c6104aa565b5b8235905067ffffffffffffffff81111561069a57610699610660565b5b6020830191508360208202830111156106b6576106b5610664565b5b9250929050565b5f5f83601f8401126106d2576106d16104aa565b5b8235905067ffffffffffffffff8111156106ef576106ee610660565b5b60208301915083602082028301111561070b5761070a610664565b5b9250929050565b5f5f5f5f6040858703121561072a576107296104a2565b5b5f85013567ffffffffffffffff811115610747576107466104a6565b5b61075387828801610668565b9450945050602085013567ffffffffffffffff811115610776576107756104a6565b5b610782878288016106bd565b925092505092959194509250565b5f819050919050565b6107a281610790565b82525050565b5f6020820190506107bb5f830184610799565b92915050565b5f73ffffffffffffffffffffffffffffffffffffffff82169050919050565b5f6107ea826107c1565b9050919050565b6107fa816107e0565b8114610804575f5ffd5b50565b5f81359050610815816107f1565b92915050565b61082481610790565b811461082e575f5ffd5b50565b5f8135905061083f8161081b565b92915050565b5f5f6040838503121561085b5761085a6104a2565b5b5f61086885828601610807565b925050602061087985828601610831565b9150509250929050565b5f81519050919050565b5f82825260208201905092915050565b8281835e5f83830152505050565b5f6108b582610883565b6108bf818561088d565b93506108cf81856020860161089d565b6108d8816104b2565b840191505092915050565b5f6020820190508181035f8301526108fb81846108ab565b905092915050565b5f819050919050565b5f61092661092161091c846107c1565b610903565b6107c1565b9050919050565b5f6109378261090c565b9050919050565b5f6109488261092d565b9050919050565b6109588161093e565b82525050565b5f6020820190506109715f83018461094f565b92915050565b5f610981826107c1565b9050919050565b61099181610977565b811461099b575f5ffd5b50565b5f815190506109ac81610988565b92915050565b5f815190506109c08161081b565b92915050565b5f5f604083850312156109dc576109db6104a2565b5b5f6109e98582860161099e565b92505060206109fa858286016109b2565b9150509250929050565b5f82825260208201905092915050565b7f617272617973206c656e677468206d69736d61746368000000000000000000005f82015250565b5f610a48601683610a04565b9150610a5382610a14565b602082019050919050565b5f6020820190508181035f830152610a7581610a3c565b9050919050565b610a85816107e0565b82525050565b5f604082019050610a9e5f830185610a7c565b610aab6020830184610a7c565b9392505050565b5f60208284031215610ac757610ac66104a2565b5b5f610ad4848285016109b2565b91505092915050565b7f6e6f7420656e6f7567687420617070726f76656420746f6b656e7300000000005f82015250565b5f610b11601b83610a04565b9150610b1c82610add565b602082019050919050565b5f6020820190508181035f830152610b3e81610b05565b9050919050565b7f4e487b71000000000000000000000000000000000000000000000000000000005f52603260045260245ffd5b5f60208284031215610b8757610b866104a2565b5b5f610b9484828501610807565b91505092915050565b5f606082019050610bb05f830186610a7c565b610bbd6020830185610a7c565b610bca6040830184610799565b949350505050565b610bdb8161062d565b8114610be5575f5ffd5b50565b5f81519050610bf681610bd2565b92915050565b5f60208284031215610c1157610c106104a2565b5b5f610c1e84828501610be8565b91505092915050565b7f7472616e73666572206661696c656400000000000000000000000000000000005f82015250565b5f610c5b600f83610a04565b9150610c6682610c27565b602082019050919050565b5f6020820190508181035f830152610c8881610c4f565b9050919050565b5f604082019050610ca25f830185610a7c565b610caf6020830184610799565b939250505056fea264697066735822122056ec3bcd13953925c38991b662fe2684262f413f621a223d2e637abe53d40b7464736f6c634300081d0033",
					"opcodes": "PUSH1 0x80 PUSH1 0x40 MSTORE CALLVALUE DUP1 ISZERO PUSH1 0xE JUMPI PUSH0 PUSH0 REVERT JUMPDEST POP PUSH2 0xCEC DUP1 PUSH2 0x1C PUSH0 CODECOPY PUSH0 RETURN INVALID PUSH1 0x80 PUSH1 0x40 MSTORE CALLVALUE DUP1 ISZERO PUSH2 0xF JUMPI PUSH0 PUSH0 REVERT JUMPDEST POP PUSH1 0x4 CALLDATASIZE LT PUSH2 0x55 JUMPI PUSH0 CALLDATALOAD PUSH1 0xE0 SHR DUP1 PUSH4 0x439FAB91 EQ PUSH2 0x59 JUMPI DUP1 PUSH4 0x67243482 EQ PUSH2 0x89 JUMPI DUP1 PUSH4 0xAA8C217C EQ PUSH2 0xA5 JUMPI DUP1 PUSH4 0xB551C00A EQ PUSH2 0xC3 JUMPI DUP1 PUSH4 0xFC0C546A EQ PUSH2 0xF3 JUMPI JUMPDEST PUSH0 PUSH0 REVERT JUMPDEST PUSH2 0x73 PUSH1 0x4 DUP1 CALLDATASIZE SUB DUP2 ADD SWAP1 PUSH2 0x6E SWAP2 SWAP1 PUSH2 0x5E6 JUMP JUMPDEST PUSH2 0x111 JUMP JUMPDEST PUSH1 0x40 MLOAD PUSH2 0x80 SWAP2 SWAP1 PUSH2 0x647 JUMP JUMPDEST PUSH1 0x40 MLOAD DUP1 SWAP2 SUB SWAP1 RETURN JUMPDEST PUSH2 0xA3 PUSH1 0x4 DUP1 CALLDATASIZE SUB DUP2 ADD SWAP1 PUSH2 0x9E SWAP2 SWAP1 PUSH2 0x712 JUMP JUMPDEST PUSH2 0x1DD JUMP JUMPDEST STOP JUMPDEST PUSH2 0xAD PUSH2 0x443 JUMP JUMPDEST PUSH1 0x40 MLOAD PUSH2 0xBA SWAP2 SWAP1 PUSH2 0x7A8 JUMP JUMPDEST PUSH1 0x40 MLOAD DUP1 SWAP2 SUB SWAP1 RETURN JUMPDEST PUSH2 0xDD PUSH1 0x4 DUP1 CALLDATASIZE SUB DUP2 ADD SWAP1 PUSH2 0xD8 SWAP2 SWAP1 PUSH2 0x845 JUMP JUMPDEST PUSH2 0x449 JUMP JUMPDEST PUSH1 0x40 MLOAD PUSH2 0xEA SWAP2 SWAP1 PUSH2 0x8E3 JUMP JUMPDEST PUSH1 0x40 MLOAD DUP1 SWAP2 SUB SWAP1 RETURN JUMPDEST PUSH2 0xFB PUSH2 0x475 JUMP JUMPDEST PUSH1 0x40 MLOAD PUSH2 0x108 SWAP2 SWAP1 PUSH2 0x95E JUMP JUMPDEST PUSH1 0x40 MLOAD DUP1 SWAP2 SUB SWAP1 RETURN JUMPDEST PUSH0 PUSH1 0x2 PUSH0 SWAP1 SLOAD SWAP1 PUSH2 0x100 EXP SWAP1 DIV PUSH1 0xFF AND ISZERO PUSH2 0x158 JUMPI PUSH1 0x40 MLOAD PUSH32 0xDC149F000000000000000000000000000000000000000000000000000000000 DUP2 MSTORE PUSH1 0x4 ADD PUSH1 0x40 MLOAD DUP1 SWAP2 SUB SWAP1 REVERT JUMPDEST PUSH0 PUSH0 DUP4 DUP1 PUSH1 0x20 ADD SWAP1 MLOAD DUP2 ADD SWAP1 PUSH2 0x16E SWAP2 SWAP1 PUSH2 0x9C6 JUMP JUMPDEST SWAP2 POP SWAP2 POP DUP2 PUSH0 PUSH0 PUSH2 0x100 EXP DUP2 SLOAD DUP2 PUSH20 0xFFFFFFFFFFFFFFFFFFFFFFFFFFFFFFFFFFFFFFFF MUL NOT AND SWAP1 DUP4 PUSH20 0xFFFFFFFFFFFFFFFFFFFFFFFFFFFFFFFFFFFFFFFF AND MUL OR SWAP1 SSTORE POP DUP1 PUSH1 0x1 DUP2 SWAP1 SSTORE POP PUSH1 0x1 PUSH1 0x2 PUSH0 PUSH2 0x100 EXP DUP2 SLOAD DUP2 PUSH1 0xFF MUL NOT AND SWAP1 DUP4 ISZERO ISZERO MUL OR SWAP1 SSTORE POP PUSH1 0x1 SWAP3 POP POP POP SWAP2 SWAP1 POP JUMP JUMPDEST DUP2 DUP2 SWAP1 POP DUP5 DUP5 SWAP1 POP EQ PUSH2 0x225 JUMPI PUSH1 0x40 MLOAD PUSH32 0x8C379A000000000000000000000000000000000000000000000000000000000 DUP2 MSTORE PUSH1 0x4 ADD PUSH2 0x21C SWAP1 PUSH2 0xA5E JUMP JUMPDEST PUSH1 0x40 MLOAD DUP1 SWAP2 SUB SWAP1 REVERT JUMPDEST PUSH1 0x1 SLOAD PUSH0 PUSH0 SWAP1 SLOAD SWAP1 PUSH2 0x100 EXP SWAP1 DIV PUSH20 0xFFFFFFFFFFFFFFFFFFFFFFFFFFFFFFFFFFFFFFFF AND PUSH20 0xFFFFFFFFFFFFFFFFFFFFFFFFFFFFFFFFFFFFFFFF AND PUSH4 0xDD62ED3E CALLER ADDRESS PUSH1 0x40 MLOAD DUP4 PUSH4 0xFFFFFFFF AND PUSH1 0xE0 SHL DUP2 MSTORE PUSH1 0x4 ADD PUSH2 0x283 SWAP3 SWAP2 SWAP1 PUSH2 0xA8B JUMP JUMPDEST PUSH1 0x20 PUSH1 0x40 MLOAD DUP1 DUP4 SUB DUP2 DUP7 GAS STATICCALL ISZERO DUP1 ISZERO PUSH2 0x29E JUMPI RETURNDATASIZE PUSH0 PUSH0 RETURNDATACOPY RETURNDATASIZE PUSH0 REVERT JUMPDEST POP POP POP POP PUSH1 0x40 MLOAD RETURNDATASIZE PUSH1 0x1F NOT PUSH1 0x1F DUP3 ADD AND DUP3 ADD DUP1 PUSH1 0x40 MSTORE POP DUP2 ADD SWAP1 PUSH2 0x2C2 SWAP2 SWAP1 PUSH2 0xAB2 JUMP JUMPDEST LT ISZERO PUSH2 0x303 JUMPI PUSH1 0x40 MLOAD PUSH32 0x8C379A000000000000000000000000000000000000000000000000000000000 DUP2 MSTORE PUSH1 0x4 ADD PUSH2 0x2FA SWAP1 PUSH2 0xB27 JUMP JUMPDEST PUSH1 0x40 MLOAD DUP1 SWAP2 SUB SWAP1 REVERT JUMPDEST PUSH0 PUSH0 SWAP1 POP JUMPDEST DUP5 DUP5 SWAP1 POP DUP2 LT ISZERO PUSH2 0x43C JUMPI PUSH0 PUSH0 SWAP1 SLOAD SWAP1 PUSH2 0x100 EXP SWAP1 DIV PUSH20 0xFFFFFFFFFFFFFFFFFFFFFFFFFFFFFFFFFFFFFFFF AND PUSH20 0xFFFFFFFFFFFFFFFFFFFFFFFFFFFFFFFFFFFFFFFF AND PUSH4 0x23B872DD CALLER DUP8 DUP8 DUP6 DUP2 DUP2 LT PUSH2 0x363 JUMPI PUSH2 0x362 PUSH2 0xB45 JUMP JUMPDEST JUMPDEST SWAP1 POP PUSH1 0x20 MUL ADD PUSH1 0x20 DUP2 ADD SWAP1 PUSH2 0x378 SWAP2 SWAP1 PUSH2 0xB72 JUMP JUMPDEST DUP7 DUP7 DUP7 DUP2 DUP2 LT PUSH2 0x38B JUMPI PUSH2 0x38A PUSH2 0xB45 JUMP JUMPDEST JUMPDEST SWAP1 POP PUSH1 0x20 MUL ADD CALLDATALOAD PUSH1 0x40 MLOAD DUP5 PUSH4 0xFFFFFFFF AND PUSH1 0xE0 SHL DUP2 MSTORE PUSH1 0x4 ADD PUSH2 0x3B0 SWAP4 SWAP3 SWAP2 SWAP1 PUSH2 0xB9D JUMP JUMPDEST PUSH1 0x20 PUSH1 0x40 MLOAD DUP1 DUP4 SUB DUP2 PUSH0 DUP8 GAS CALL ISZERO DUP1 ISZERO PUSH2 0x3CC JUMPI RETURNDATASIZE PUSH0 PUSH0 RETURNDATACOPY RETURNDATASIZE PUSH0 REVERT JUMPDEST POP POP POP POP PUSH1 0x40 MLOAD RETURNDATASIZE PUSH1 0x1F NOT PUSH1 0x1F DUP3 ADD AND DUP3 ADD DUP1 PUSH1 0x40 MSTORE POP DUP2 ADD SWAP1 PUSH2 0x3F0 SWAP2 SWAP1 PUSH2 0xBFC JUMP JUMPDEST PUSH2 0x42F JUMPI PUSH1 0x40 MLOAD PUSH32 0x8C379A000000000000000000000000000000000000000000000000000000000 DUP2 MSTORE PUSH1 0x4 ADD PUSH2 0x426 SWAP1 PUSH2 0xC71 JUMP JUMPDEST PUSH1 0x40 MLOAD DUP1 SWAP2 SUB SWAP1 REVERT JUMPDEST DUP1 DUP1 PUSH1 0x1 ADD SWAP2 POP POP PUSH2 0x308 JUMP JUMPDEST POP POP POP POP POP JUMP JUMPDEST PUSH1 0x1 SLOAD DUP2 JUMP JUMPDEST PUSH1 0x60 DUP3 DUP3 PUSH1 0x40 MLOAD PUSH1 0x20 ADD PUSH2 0x45E SWAP3 SWAP2 SWAP1 PUSH2 0xC8F JUMP JUMPDEST PUSH1 0x40 MLOAD PUSH1 0x20 DUP2 DUP4 SUB SUB DUP2 MSTORE SWAP1 PUSH1 0x40 MSTORE SWAP1 POP SWAP3 SWAP2 POP POP JUMP JUMPDEST PUSH0 PUSH0 SWAP1 SLOAD SWAP1 PUSH2 0x100 EXP SWAP1 DIV PUSH20 0xFFFFFFFFFFFFFFFFFFFFFFFFFFFFFFFFFFFFFFFF AND DUP2 JUMP JUMPDEST PUSH0 PUSH1 0x40 MLOAD SWAP1 POP SWAP1 JUMP JUMPDEST PUSH0 PUSH0 REVERT JUMPDEST PUSH0 PUSH0 REVERT JUMPDEST PUSH0 PUSH0 REVERT JUMPDEST PUSH0 PUSH0 REVERT JUMPDEST PUSH0 PUSH1 0x1F NOT PUSH1 0x1F DUP4 ADD AND SWAP1 POP SWAP2 SWAP1 POP JUMP JUMPDEST PUSH32 0x4E487B7100000000000000000000000000000000000000000000000000000000 PUSH0 MSTORE PUSH1 0x41 PUSH1 0x4 MSTORE PUSH1 0x24 PUSH0 REVERT JUMPDEST PUSH2 0x4F8 DUP3 PUSH2 0x4B2 JUMP JUMPDEST DUP2 ADD DUP2 DUP2 LT PUSH8 0xFFFFFFFFFFFFFFFF DUP3 GT OR ISZERO PUSH2 0x517 JUMPI PUSH2 0x516 PUSH2 0x4C2 JUMP JUMPDEST JUMPDEST DUP1 PUSH1 0x40 MSTORE POP POP POP JUMP JUMPDEST PUSH0 PUSH2 0x529 PUSH2 0x499 JUMP JUMPDEST SWAP1 POP PUSH2 0x535 DUP3 DUP3 PUSH2 0x4EF JUMP JUMPDEST SWAP2 SWAP1 POP JUMP JUMPDEST PUSH0 PUSH8 0xFFFFFFFFFFFFFFFF DUP3 GT ISZERO PUSH2 0x554 JUMPI PUSH2 0x553 PUSH2 0x4C2 JUMP JUMPDEST JUMPDEST PUSH2 0x55D DUP3 PUSH2 0x4B2 JUMP JUMPDEST SWAP1 POP PUSH1 0x20 DUP2 ADD SWAP1 POP SWAP2 SWAP1 POP JUMP JUMPDEST DUP3 DUP2 DUP4 CALLDATACOPY PUSH0 DUP4 DUP4 ADD MSTORE POP POP POP JUMP JUMPDEST PUSH0 PUSH2 0x58A PUSH2 0x585 DUP5 PUSH2 0x53A JUMP JUMPDEST PUSH2 0x520 JUMP JUMPDEST SWAP1 POP DUP3 DUP2 MSTORE PUSH1 0x20 DUP2 ADD DUP5 DUP5 DUP5 ADD GT ISZERO PUSH2 0x5A6 JUMPI PUSH2 0x5A5 PUSH2 0x4AE JUMP JUMPDEST JUMPDEST PUSH2 0x5B1 DUP5 DUP3 DUP6 PUSH2 0x56A JUMP JUMPDEST POP SWAP4 SWAP3 POP POP POP JUMP JUMPDEST PUSH0 DUP3 PUSH1 0x1F DUP4 ADD SLT PUSH2 0x5CD JUMPI PUSH2 0x5CC PUSH2 0x4AA JUMP JUMPDEST JUMPDEST DUP2 CALLDATALOAD PUSH2 0x5DD DUP5 DUP3 PUSH1 0x20 DUP7 ADD PUSH2 0x578 JUMP JUMPDEST SWAP2 POP POP SWAP3 SWAP2 POP POP JUMP JUMPDEST PUSH0 PUSH1 0x20 DUP3 DUP5 SUB SLT ISZERO PUSH2 0x5FB JUMPI PUSH2 0x5FA PUSH2 0x4A2 JUMP JUMPDEST JUMPDEST PUSH0 DUP3 ADD CALLDATALOAD PUSH8 0xFFFFFFFFFFFFFFFF DUP2 GT ISZERO PUSH2 0x618 JUMPI PUSH2 0x617 PUSH2 0x4A6 JUMP JUMPDEST JUMPDEST PUSH2 0x624 DUP5 DUP3 DUP6 ADD PUSH2 0x5B9 JUMP JUMPDEST SWAP2 POP POP SWAP3 SWAP2 POP POP JUMP JUMPDEST PUSH0 DUP2 ISZERO ISZERO SWAP1 POP SWAP2 SWAP1 POP JUMP JUMPDEST PUSH2 0x641 DUP2 PUSH2 0x62D JUMP JUMPDEST DUP3 MSTORE POP POP JUMP JUMPDEST PUSH0 PUSH1 0x20 DUP3 ADD SWAP1 POP PUSH2 0x65A PUSH0 DUP4 ADD DUP5 PUSH2 0x638 JUMP JUMPDEST SWAP3 SWAP2 POP POP JUMP JUMPDEST PUSH0 PUSH0 REVERT JUMPDEST PUSH0 PUSH0 REVERT JUMPDEST PUSH0 PUSH0 DUP4 PUSH1 0x1F DUP5 ADD SLT PUSH2 0x67D JUMPI PUSH2 0x67C PUSH2 0x4AA JUMP JUMPDEST JUMPDEST DUP3 CALLDATALOAD SWAP1 POP PUSH8 0xFFFFFFFFFFFFFFFF DUP2 GT ISZERO PUSH2 0x69A JUMPI PUSH2 0x699 PUSH2 0x660 JUMP JUMPDEST JUMPDEST PUSH1 0x20 DUP4 ADD SWAP2 POP DUP4 PUSH1 0x20 DUP3 MUL DUP4 ADD GT ISZERO PUSH2 0x6B6 JUMPI PUSH2 0x6B5 PUSH2 0x664 JUMP JUMPDEST JUMPDEST SWAP3 POP SWAP3 SWAP1 POP JUMP JUMPDEST PUSH0 PUSH0 DUP4 PUSH1 0x1F DUP5 ADD SLT PUSH2 0x6D2 JUMPI PUSH2 0x6D1 PUSH2 0x4AA JUMP JUMPDEST JUMPDEST DUP3 CALLDATALOAD SWAP1 POP PUSH8 0xFFFFFFFFFFFFFFFF DUP2 GT ISZERO PUSH2 0x6EF JUMPI PUSH2 0x6EE PUSH2 0x660 JUMP JUMPDEST JUMPDEST PUSH1 0x20 DUP4 ADD SWAP2 POP DUP4 PUSH1 0x20 DUP3 MUL DUP4 ADD GT ISZERO PUSH2 0x70B JUMPI PUSH2 0x70A PUSH2 0x664 JUMP JUMPDEST JUMPDEST SWAP3 POP SWAP3 SWAP1 POP JUMP JUMPDEST PUSH0 PUSH0 PUSH0 PUSH0 PUSH1 0x40 DUP6 DUP8 SUB SLT ISZERO PUSH2 0x72A JUMPI PUSH2 0x729 PUSH2 0x4A2 JUMP JUMPDEST JUMPDEST PUSH0 DUP6 ADD CALLDATALOAD PUSH8 0xFFFFFFFFFFFFFFFF DUP2 GT ISZERO PUSH2 0x747 JUMPI PUSH2 0x746 PUSH2 0x4A6 JUMP JUMPDEST JUMPDEST PUSH2 0x753 DUP8 DUP3 DUP9 ADD PUSH2 0x668 JUMP JUMPDEST SWAP5 POP SWAP5 POP POP PUSH1 0x20 DUP6 ADD CALLDATALOAD PUSH8 0xFFFFFFFFFFFFFFFF DUP2 GT ISZERO PUSH2 0x776 JUMPI PUSH2 0x775 PUSH2 0x4A6 JUMP JUMPDEST JUMPDEST PUSH2 0x782 DUP8 DUP3 DUP9 ADD PUSH2 0x6BD JUMP JUMPDEST SWAP3 POP SWAP3 POP POP SWAP3 SWAP6 SWAP2 SWAP5 POP SWAP3 POP JUMP JUMPDEST PUSH0 DUP2 SWAP1 POP SWAP2 SWAP1 POP JUMP JUMPDEST PUSH2 0x7A2 DUP2 PUSH2 0x790 JUMP JUMPDEST DUP3 MSTORE POP POP JUMP JUMPDEST PUSH0 PUSH1 0x20 DUP3 ADD SWAP1 POP PUSH2 0x7BB PUSH0 DUP4 ADD DUP5 PUSH2 0x799 JUMP JUMPDEST SWAP3 SWAP2 POP POP JUMP JUMPDEST PUSH0 PUSH20 0xFFFFFFFFFFFFFFFFFFFFFFFFFFFFFFFFFFFFFFFF DUP3 AND SWAP1 POP SWAP2 SWAP1 POP JUMP JUMPDEST PUSH0 PUSH2 0x7EA DUP3 PUSH2 0x7C1 JUMP JUMPDEST SWAP1 POP SWAP2 SWAP1 POP JUMP JUMPDEST PUSH2 0x7FA DUP2 PUSH2 0x7E0 JUMP JUMPDEST DUP2 EQ PUSH2 0x804 JUMPI PUSH0 PUSH0 REVERT JUMPDEST POP JUMP JUMPDEST PUSH0 DUP2 CALLDATALOAD SWAP1 POP PUSH2 0x815 DUP2 PUSH2 0x7F1 JUMP JUMPDEST SWAP3 SWAP2 POP POP JUMP JUMPDEST PUSH2 0x824 DUP2 PUSH2 0x790 JUMP JUMPDEST DUP2 EQ PUSH2 0x82E JUMPI PUSH0 PUSH0 REVERT JUMPDEST POP JUMP JUMPDEST PUSH0 DUP2 CALLDATALOAD SWAP1 POP PUSH2 0x83F DUP2 PUSH2 0x81B JUMP JUMPDEST SWAP3 SWAP2 POP POP JUMP JUMPDEST PUSH0 PUSH0 PUSH1 0x40 DUP4 DUP6 SUB SLT ISZERO PUSH2 0x85B JUMPI PUSH2 0x85A PUSH2 0x4A2 JUMP JUMPDEST JUMPDEST PUSH0 PUSH2 0x868 DUP6 DUP3 DUP7 ADD PUSH2 0x807 JUMP JUMPDEST SWAP3 POP POP PUSH1 0x20 PUSH2 0x879 DUP6 DUP3 DUP7 ADD PUSH2 0x831 JUMP JUMPDEST SWAP2 POP POP SWAP3 POP SWAP3 SWAP1 POP JUMP JUMPDEST PUSH0 DUP2 MLOAD SWAP1 POP SWAP2 SWAP1 POP JUMP JUMPDEST PUSH0 DUP3 DUP3 MSTORE PUSH1 0x20 DUP3 ADD SWAP1 POP SWAP3 SWAP2 POP POP JUMP JUMPDEST DUP3 DUP2 DUP4 MCOPY PUSH0 DUP4 DUP4 ADD MSTORE POP POP POP JUMP JUMPDEST PUSH0 PUSH2 0x8B5 DUP3 PUSH2 0x883 JUMP JUMPDEST PUSH2 0x8BF DUP2 DUP6 PUSH2 0x88D JUMP JUMPDEST SWAP4 POP PUSH2 0x8CF DUP2 DUP6 PUSH1 0x20 DUP7 ADD PUSH2 0x89D JUMP JUMPDEST PUSH2 0x8D8 DUP2 PUSH2 0x4B2 JUMP JUMPDEST DUP5 ADD SWAP2 POP POP SWAP3 SWAP2 POP POP JUMP JUMPDEST PUSH0 PUSH1 0x20 DUP3 ADD SWAP1 POP DUP2 DUP2 SUB PUSH0 DUP4 ADD MSTORE PUSH2 0x8FB DUP2 DUP5 PUSH2 0x8AB JUMP JUMPDEST SWAP1 POP SWAP3 SWAP2 POP POP JUMP JUMPDEST PUSH0 DUP2 SWAP1 POP SWAP2 SWAP1 POP JUMP JUMPDEST PUSH0 PUSH2 0x926 PUSH2 0x921 PUSH2 0x91C DUP5 PUSH2 0x7C1 JUMP JUMPDEST PUSH2 0x903 JUMP JUMPDEST PUSH2 0x7C1 JUMP JUMPDEST SWAP1 POP SWAP2 SWAP1 POP JUMP JUMPDEST PUSH0 PUSH2 0x937 DUP3 PUSH2 0x90C JUMP JUMPDEST SWAP1 POP SWAP2 SWAP1 POP JUMP JUMPDEST PUSH0 PUSH2 0x948 DUP3 PUSH2 0x92D JUMP JUMPDEST SWAP1 POP SWAP2 SWAP1 POP JUMP JUMPDEST PUSH2 0x958 DUP2 PUSH2 0x93E JUMP JUMPDEST DUP3 MSTORE POP POP JUMP JUMPDEST PUSH0 PUSH1 0x20 DUP3 ADD SWAP1 POP PUSH2 0x971 PUSH0 DUP4 ADD DUP5 PUSH2 0x94F JUMP JUMPDEST SWAP3 SWAP2 POP POP JUMP JUMPDEST PUSH0 PUSH2 0x981 DUP3 PUSH2 0x7C1 JUMP JUMPDEST SWAP1 POP SWAP2 SWAP1 POP JUMP JUMPDEST PUSH2 0x991 DUP2 PUSH2 0x977 JUMP JUMPDEST DUP2 EQ PUSH2 0x99B JUMPI PUSH0 PUSH0 REVERT JUMPDEST POP JUMP JUMPDEST PUSH0 DUP2 MLOAD SWAP1 POP PUSH2 0x9AC DUP2 PUSH2 0x988 JUMP JUMPDEST SWAP3 SWAP2 POP POP JUMP JUMPDEST PUSH0 DUP2 MLOAD SWAP1 POP PUSH2 0x9C0 DUP2 PUSH2 0x81B JUMP JUMPDEST SWAP3 SWAP2 POP POP JUMP JUMPDEST PUSH0 PUSH0 PUSH1 0x40 DUP4 DUP6 SUB SLT ISZERO PUSH2 0x9DC JUMPI PUSH2 0x9DB PUSH2 0x4A2 JUMP JUMPDEST JUMPDEST PUSH0 PUSH2 0x9E9 DUP6 DUP3 DUP7 ADD PUSH2 0x99E JUMP JUMPDEST SWAP3 POP POP PUSH1 0x20 PUSH2 0x9FA DUP6 DUP3 DUP7 ADD PUSH2 0x9B2 JUMP JUMPDEST SWAP2 POP POP SWAP3 POP SWAP3 SWAP1 POP JUMP JUMPDEST PUSH0 DUP3 DUP3 MSTORE PUSH1 0x20 DUP3 ADD SWAP1 POP SWAP3 SWAP2 POP POP JUMP JUMPDEST PUSH32 0x617272617973206C656E677468206D69736D6174636800000000000000000000 PUSH0 DUP3 ADD MSTORE POP JUMP JUMPDEST PUSH0 PUSH2 0xA48 PUSH1 0x16 DUP4 PUSH2 0xA04 JUMP JUMPDEST SWAP2 POP PUSH2 0xA53 DUP3 PUSH2 0xA14 JUMP JUMPDEST PUSH1 0x20 DUP3 ADD SWAP1 POP SWAP2 SWAP1 POP JUMP JUMPDEST PUSH0 PUSH1 0x20 DUP3 ADD SWAP1 POP DUP2 DUP2 SUB PUSH0 DUP4 ADD MSTORE PUSH2 0xA75 DUP2 PUSH2 0xA3C JUMP JUMPDEST SWAP1 POP SWAP2 SWAP1 POP JUMP JUMPDEST PUSH2 0xA85 DUP2 PUSH2 0x7E0 JUMP JUMPDEST DUP3 MSTORE POP POP JUMP JUMPDEST PUSH0 PUSH1 0x40 DUP3 ADD SWAP1 POP PUSH2 0xA9E PUSH0 DUP4 ADD DUP6 PUSH2 0xA7C JUMP JUMPDEST PUSH2 0xAAB PUSH1 0x20 DUP4 ADD DUP5 PUSH2 0xA7C JUMP JUMPDEST SWAP4 SWAP3 POP POP POP JUMP JUMPDEST PUSH0 PUSH1 0x20 DUP3 DUP5 SUB SLT ISZERO PUSH2 0xAC7 JUMPI PUSH2 0xAC6 PUSH2 0x4A2 JUMP JUMPDEST JUMPDEST PUSH0 PUSH2 0xAD4 DUP5 DUP3 DUP6 ADD PUSH2 0x9B2 JUMP JUMPDEST SWAP2 POP POP SWAP3 SWAP2 POP POP JUMP JUMPDEST PUSH32 0x6E6F7420656E6F7567687420617070726F76656420746F6B656E730000000000 PUSH0 DUP3 ADD MSTORE POP JUMP JUMPDEST PUSH0 PUSH2 0xB11 PUSH1 0x1B DUP4 PUSH2 0xA04 JUMP JUMPDEST SWAP2 POP PUSH2 0xB1C DUP3 PUSH2 0xADD JUMP JUMPDEST PUSH1 0x20 DUP3 ADD SWAP1 POP SWAP2 SWAP1 POP JUMP JUMPDEST PUSH0 PUSH1 0x20 DUP3 ADD SWAP1 POP DUP2 DUP2 SUB PUSH0 DUP4 ADD MSTORE PUSH2 0xB3E DUP2 PUSH2 0xB05 JUMP JUMPDEST SWAP1 POP SWAP2 SWAP1 POP JUMP JUMPDEST PUSH32 0x4E487B7100000000000000000000000000000000000000000000000000000000 PUSH0 MSTORE PUSH1 0x32 PUSH1 0x4 MSTORE PUSH1 0x24 PUSH0 REVERT JUMPDEST PUSH0 PUSH1 0x20 DUP3 DUP5 SUB SLT ISZERO PUSH2 0xB87 JUMPI PUSH2 0xB86 PUSH2 0x4A2 JUMP JUMPDEST JUMPDEST PUSH0 PUSH2 0xB94 DUP5 DUP3 DUP6 ADD PUSH2 0x807 JUMP JUMPDEST SWAP2 POP POP SWAP3 SWAP2 POP POP JUMP JUMPDEST PUSH0 PUSH1 0x60 DUP3 ADD SWAP1 POP PUSH2 0xBB0 PUSH0 DUP4 ADD DUP7 PUSH2 0xA7C JUMP JUMPDEST PUSH2 0xBBD PUSH1 0x20 DUP4 ADD DUP6 PUSH2 0xA7C JUMP JUMPDEST PUSH2 0xBCA PUSH1 0x40 DUP4 ADD DUP5 PUSH2 0x799 JUMP JUMPDEST SWAP5 SWAP4 POP POP POP POP JUMP JUMPDEST PUSH2 0xBDB DUP2 PUSH2 0x62D JUMP JUMPDEST DUP2 EQ PUSH2 0xBE5 JUMPI PUSH0 PUSH0 REVERT JUMPDEST POP JUMP JUMPDEST PUSH0 DUP2 MLOAD SWAP1 POP PUSH2 0xBF6 DUP2 PUSH2 0xBD2 JUMP JUMPDEST SWAP3 SWAP2 POP POP JUMP JUMPDEST PUSH0 PUSH1 0x20 DUP3 DUP5 SUB SLT ISZERO PUSH2 0xC11 JUMPI PUSH2 0xC10 PUSH2 0x4A2 JUMP JUMPDEST JUMPDEST PUSH0 PUSH2 0xC1E DUP5 DUP3 DUP6 ADD PUSH2 0xBE8 JUMP JUMPDEST SWAP2 POP POP SWAP3 SWAP2 POP POP JUMP JUMPDEST PUSH32 0x7472616E73666572206661696C65640000000000000000000000000000000000 PUSH0 DUP3 ADD MSTORE POP JUMP JUMPDEST PUSH0 PUSH2 0xC5B PUSH1 0xF DUP4 PUSH2 0xA04 JUMP JUMPDEST SWAP2 POP PUSH2 0xC66 DUP3 PUSH2 0xC27 JUMP JUMPDEST PUSH1 0x20 DUP3 ADD SWAP1 POP SWAP2 SWAP1 POP JUMP JUMPDEST PUSH0 PUSH1 0x20 DUP3 ADD SWAP1 POP DUP2 DUP2 SUB PUSH0 DUP4 ADD MSTORE PUSH2 0xC88 DUP2 PUSH2 0xC4F JUMP JUMPDEST SWAP1 POP SWAP2 SWAP1 POP JUMP JUMPDEST PUSH0 PUSH1 0x40 DUP3 ADD SWAP1 POP PUSH2 0xCA2 PUSH0 DUP4 ADD DUP6 PUSH2 0xA7C JUMP JUMPDEST PUSH2 0xCAF PUSH1 0x20 DUP4 ADD DUP5 PUSH2 0x799 JUMP JUMPDEST SWAP4 SWAP3 POP POP POP JUMP INVALID LOG2 PUSH5 0x6970667358 0x22 SLT KECCAK256 JUMP EOFCREATE 0x3B 0xCD SGT SWAP6 CODECOPY 0x25 0xC3 DUP10 SWAP2 0xB6 PUSH3 0xFE2684 0x26 0x2F COINBASE EXTCODEHASH PUSH3 0x1A223D 0x2E PUSH4 0x7ABE53D4 SIGNEXTEND PUSH21 0x64736F6C634300081D003300000000000000000000 "
				},
				"gasEstimates": {
					"creation": {
						"codeDepositCost": "661600",
						"executionCost": "694",
						"totalCost": "662294"
					},
					"external": {
						"airdrop(address[],uint256[])": "infinite",
						"amount()": "2447",
						"getInitData(address,uint256)": "infinite",
						"initialize(bytes)": "infinite",
						"token()": "infinite"
					}
				},
				"methodIdentifiers": {
					"airdrop(address[],uint256[])": "67243482",
					"amount()": "aa8c217c",
					"getInitData(address,uint256)": "b551c00a",
					"initialize(bytes)": "439fab91",
					"token()": "fc0c546a"
				}
			},
			"storageLayout": {
				"storage": [
					{
						"astId": 791,
						"contract": "Factory/ERC20Airdropper/ERC20Airdropper.sol:ERC20Airdropper",
						"label": "token",
						"offset": 0,
						"slot": "0",
						"type": "t_contract(IERC20)729"
					},
					{
						"astId": 793,
						"contract": "Factory/ERC20Airdropper/ERC20Airdropper.sol:ERC20Airdropper",
						"label": "amount",
						"offset": 0,
						"slot": "1",
						"type": "t_uint256"
					},
					{
						"astId": 795,
						"contract": "Factory/ERC20Airdropper/ERC20Airdropper.sol:ERC20Airdropper",
						"label": "initialized",
						"offset": 0,
						"slot": "2",
						"type": "t_bool"
					}
				],
				"types": {
					"t_bool": {
						"encoding": "inplace",
						"label": "bool",
						"numberOfBytes": "1"
					},
					"t_contract(IERC20)729": {
						"encoding": "inplace",
						"label": "contract IERC20",
						"numberOfBytes": "20"
					},
					"t_uint256": {
						"encoding": "inplace",
						"label": "uint256",
						"numberOfBytes": "32"
					}
				}
			},
			"userdoc": {
				"kind": "user",
				"methods": {},
				"version": 1
			}
		}
	}
}